:03000000020446B1
:0C044600787FE4F6D8FD75812A02048D51
:10066200041A111111110408EFEFEFEF011100014B
:100672001900011E00011200020C0099041340200F
:0D0682000000010E00020F00000217000032
:10069900E4FDFCC3ED9FEC9E5016E4FBFA000BBB96
:1006A90000010AEB64724A70F40DBD00010C80E38D
:0106B900221E
:1005A600E4F51F12070B12071A120729E4FD7F163E
:1005B60012023F7D017F1612023F7D027F16120254
:1005C6003F7D037F1612023FE51930E00E851E1FA0
:1005D6005319FEE51FB40303120738E51F24FE6016
:1005E6000F146014240270E07512011206BA80D846
:1005F6007512021206D680D07512031202FB80C84D
:0F070B005389F0438902758A06758C06D28C22B9
:0F071A0053890F438920758B06758D06D28E2269
:0F072900D2AFD2A9D2ABD2ADD2B9C2BBC2BD2220
:03000B00020606E4
:10060600C0E0C0F0C083C082C0D075D000C000C0BA
:1006160001C002C003C004C005C006C007C2AF05C2
:1006260018E51870020517640A45177012F517F5D4
:10063600181203AD1206F20510E5107002050FD26E
:10064600AFD007D006D005D004D003D002D001D059
:0C06560000D0D0D082D083D0F0D0E032B1
:1003AD00E511146011146012146013146014240408
:1003BD0070127F01800E7F02800A7F0480067F0805
:1003CD0080027F107E80E4FDEF5E6003D38001C369
:1003DD009290C291D291EEC313FE0DBD08EAE511C4
:1003ED00C39404500C74082511F8E6FF85111E8086
:1003FD001BE51224FE600B14600C2402700C7FF7B9
:10040D00800A7FFB80067FFD80027FFF7E80E4FDFA
:10041D00EF5E6003D38001C39290C291D291EEC37F
:10042D0013FE0DBD08EAC292D292C2920511E511DA
:08043D00D394044003E4F5111F
:010445002294
:02023F00A9050F
:10024100EFB4170040030202F2900251F82828731C
:1002510002029602029A02029E0202A20202A60271
:1002610002AA0202AE0202B20202B60202BA0202FD
:10027100BE0202C20202C60202CA0202CE0202D2B9
:100281000202D60202DA0202DE0202E20202E60201
:1002910002EA0202EE7E11805A7E7D80567E238024
:1002A100527E29804E7E4D804A7E8980467E8180A5
:1002B100427E3D803E7E01803A7E0980367E1080FE
:1002C100327E7C802E7E22802A7E2880267E4C8073
:1002D100227E88801E7E80801A7E3C8016E4FE800D
:1002E100127E08800E7E51800A7E8780067EEF8016
:0902F100027EEF740829F8A6064C
:0102FA0022E1
:1006F200E51920E01330B504051E800930B40974F1
:0907020005251EF51E4319012214
:09068F00012A000426000000000D
:1006BA00E4FD7F1612023F7D017F0112023F7D0297
:0C06CA007F1612023F7D037F1602023FE4
:1006D600E4FD7F1612023F7D017F0212023F7D027A
:0C06E6007F1612023F7D037F1602023FC8
:1002FB00E52A146047146070240260030203ACE427
:10030B00FD7F1612023F7D017F0312023F7D027FAC
:10031B001612023F7D037F1612023FC3E51095298B
:10032B00FFE50F9528FEE49527FDE49526FCE47B7D
:10033B00C8FAF9F8D31201D950678057AF0DAE0C3C
:10034B00120540C3E5109529FFE50F9528FEE495AE
:10035B0027FDE49526FCE47B907A01F9F8D3120192
:10036B00D9503E752A02802EAF16AE15AD14AC13C4
:10037B001204D2C3E5109529FFE50F9528FEE495ED
:10038B0027FDE49526FCE47B907A01F9F8D3120162
:10039B00D9500E752A01E4851029850F28F527F50C
:0203AB00262208
:0E073800E4F52A851029850F28F527F52622DD
:100540008E208F21E4FD7F1512023FD3E52194E731
:10055000E5206480948340067E037FE78004AE201C
:10056000AF218E208F217C007D641201957C007D5F
:100570000A120195AF057D0112023FAE20AF217C2A
:10058000007D0A1201957C007D0A120195AF057D60
:100590000212023FAE20AF217C007D0A120195AF0E
:0605A000057D0302023F8D
:0804D2008F238E228D218C2066
:1004DA00E4FFFE7D207C41AB23AA22A921A8201299
:1004EA00000E1201148E248F25E4FD7F1412023FA0
:1004FA00AE24AF257C007D641201957C007D0A1232
:10050A000195AF057D0112023FAE24AF257C007D27
:10051A000A1201957C007D0A120195ED240AFF7DDD
:10052A000212023FAE24AF257C007D0A120195AF6C
:06053A00057D0302023FF3
:10000E00EC4D6011E8497017ED33EC3304600DE4EC
:10001E00FCFFFEFD22E933E8330470F80201801282
:10002E00014B58046009E4CC248150062850090283
:10003E00018A284003020187C0E0EB4A7044B98070
:10004E0006D0E0FB020176EF4E701CBD8008EBFF80
:10005E00EAFEE9FD80EBE98DF0A4FEE5F00200F783
:10006E00E9CDF9EAFEEBFFEF89F0A4FCE5F0CE89CD
:10007E00F0A42EFFE435F0CD89F0A42DFEE435F08A
:10008E008067EF4E7005BD80D780C3EF8BF0A4ACB8
:10009E00F0EE8BF0A42CFCE435F0F8EF8AF0A42CF3
:1000AE00E5F038FCE433CB8DF0A42CFCE5F03BF806
:1000BE00EE8AF0A42CFCE5F038F8E433CF89F0A4F6
:1000CE002CFCE5F038CF3400CE89F0A42FFFE5F0FC
:1000DE003EFEE433C98DF0A42EFEE5F039CD8AF054
:1000EE00A42FFFE5F03EFEE43DFD33D0E0FB5007CC
:1000FE000BBB000F02018AEC2CFCEF33FFEE33FE3C
:06010E00ED33FD02016269
:10011400EDD2E7CD33EC3392D524814006E4FFFEE3
:10012400FDFC22FCE4CFCECDCC24E0501174FF8042
:10013400EDC3CC13CCCD13CDCE13CECF13CF0470DF
:07014400F030D5DE0201CB13
:10014B00E9D2E7C933E833F892D5EDD2E7CD33ECFA
:07015B0033FC5002B2D52273
:10016200EC30E7100FBF000C0EBE00080DBD0004FE
:100172000BEB6014A2D5EB13FCED92E7FD2274FFAA
:10018200FCFDFEFF22E480F8A2D574FF13FC7D8003
:03019200E480EF17
:100452000205A6E493A3F8E493A34003F68001F215
:1004620008DFF48029E493A3F85407240CC8C333AB
:10047200C4540F4420C8834004F456800146F6DF7A
:10048200E4800B0102040810204080900662E47EA2
:10049200019360BCA3FF543F30E509541FFEE4936F
:1004A200A360010ECF54C025E060A840B8E493A336
:1004B200FAE493A3F8E493A3C8C582C8CAC583CA61
:1004C200F0A3C8C582C8CAC583CADFE9DEE780BE19
:010698000061
:10019500C2D5EC30E709B2D5E4C39DFDE49CFCEE85
:1001A50030E715B2D5E4C39FFFE49EFE1201EAC312
:1001B500E49DFDE49CFC80031201EA30D507C3E40D
:0601C5009FFFE49EFE22F4
:0E01CB00C3E49FFFE49EFEE49DFDE49CFC2245
:1001D900EB9FF5F0EA9E42F0E99D42F0E89C45F07C
:0101E90022F3
:1001EA00BC000BBE0029EF8DF084FFADF022E4CCF9
:1001FA00F875F008EF2FFFEE33FEEC33FCEE9DECC2
:10020A00984005FCEE9DFE0FD5F0E9E4CEFD22ED07
:10021A00F8F5F0EE8420D21CFEADF075F008EF2F51
:10022A00FFED33FD4007985006D5F0F222C398FD42
:05023A000FD5F0EA22DF
:00000001FF
