:10158100117D23294D89813D0109107C22284C8838
:0C159100803C00085187EF15C3E70D07F0
:1012EA000167000426EFEFEFEF014100014A000118
:1012FA005F00013801012C00012B00023D000002B1
:10130A003B000002431C00024B1D0002571E000254
:10131A005B1F000239000002650000012A00012F4C
:10132A000001510101490001420A04523F800000B4
:10133A00016200013700023F0000044D0000000076
:10134A0001300001330001360001560001618001BD
:10135A006080023400000224000002630000044599
:10136A0000000000025D0000023100000259000086
:0D137A00022D0000012100012200012300CE
:0F1612005389F0438902758A06758C06D28C22A3
:0F16210053890F438920758B06758D06D28E2253
:0F163000D2AFD2A9D2ABD2ADD2B9C2BBC2BD220A
:0D000E00759D0875BC837F027E000215B849
:1016000043970112161212162112163012000E0202
:021610000C5E6E
:03000B0002148656
:10148600C0E0C0F0C083C082C0D075D000C000C02C
:1014960001C002C003C004C005C006C007C2AF0534
:1014A60066E56670020565121548E56664034565DE
:1014B6007003120A62E56664054565700C12123FF8
:1014C6001215D3756500756600D2AFD007D006D069
:1014D60005D004D003D002D001D000D0D0D082D025
:0614E60083D0F0D0E032DB
:03001B00020F9140
:100F9100C0E0C0F0C083C082C0D075D000C000C026
:100FA10001C002C003C004C005C006C007C2AF052E
:100FB1003AE53A70020539E54AB403061214EC1217
:100FC10010C6E54AB40403121414E54AB40132858B
:100FD1003D3B853E3CD3E53E94F0E53D941B400608
:100FE100753D00753E00E52A24C025E0853E8285D9
:100FF1003D83F0755D00852A5E053EE53E70020584
:101001003DE54AB40224D3E53C94F0E53B941B4012
:1010110006753B00753C00853C82853B83E0C3132C
:10102100F562053CE53C7002053BE54AB4033285B7
:101031003D3B853E3CD3E53E9400E53D94084006AA
:10104100753D00753E00E52A24C025E0853E828578
:101051003D83F0755D00852A5E053EE53E70020523
:101061003DE54AB40432853D3B853E3CD3E53E94A3
:10107100F0E53D941B4006753D00753E00E52A24D0
:10108100C025E0853E82853D83F0755D00852A5E41
:10109100053EE53E7002053DE53AB4A00BE539B4E5
:1010A1000F06753900753A00D2AFD007D006D005CA
:1010B100D004D003D002D001D000D0D0D082D083D0
:0510C100D0F0D0E03288
:03002B000215ECCF
:1015EC00C0E0C0D075BC83E5BDC3132440F52AD040
:0415FC00D0D0E03239
:1015480075BC8BE54A24FE601714602114601E24C4
:10155800037025904000E52FF0902000E549F02227
:10156800904000E52FF0902000E562F022904000C6
:09157800E52FF0902000E4F022C0
:1015D300E56720E01330B5040568800930B4097469
:0915E300052568F5684367012243
:1007F300E56814B408004003020A6190080C75F020
:1008030003A4C58325F0C5837302082402082402C8
:1008130008240208780208E70209470209A0020A2D
:100823000585684A753801E4F510F511E4F512F50C
:100833001312159D7D01AF4A1215A17D027F161279
:1008430015A17D037F161215A10513E5137002058B
:1008530012C3940FE512940040D70511E5117002FD
:100863000510C394E8E510940340C1E54AB40103BD
:10087300755F01806BE54AB40110E55FB40406754A
:100883005F01020A5A055F020A5A754A0475380164
:10089300E4F531F532F559F55AF52DF52EF510F548
:1008A30011E4F512F51312159D7D01AF4A1215A13E
:1008B3007D027F161215A17D037F161215A1051364
:1008C300E51370020512C3940FE512940040D70597
:1008D30011E51170020510C394E8E510940340C1BB
:1008E300E4F53822E54A64017057E55FB402057503
:1008F3005101804DE55FB40332E4FFFE7D807C400F
:10090300AB55AA54A953A8521202CC6002501CAF93
:1009130055AE54AD53AC52E4FBFA7980783F1200E4
:10092300358F558E548D538C528016E55FB4041168
:10093300D3E54294DE748094835006740A2542F50D
:1009430042020A5AE54A64017050E55FB402057534
:1009530051028046E55FB4032FE4FFFEFD7C40AB0C
:1009630055AA54A953A8521202CC401CAF55AE54F9
:10097300AD53AC52E4FBFA798078BF1200358F5542
:100983008E548D538C528012E55FB4040DE542C33F
:100993009414400674F62542F542020A5AE54A6465
:1009A30001705DE55FB402057551038053E55FB4E3
:1009B30003347FCD7ECC7D9C7C40AB55AA54A95398
:1009C300A8521202CC6002501DAF55AE54AD53ACC9
:1009D300527BCD7ACC79CC783D1200358F558E542D
:1009E3008D538C52801AE55FB40415AC42E41203B4
:1009F3004F7B337AF3797978441202CC4002054273
:100A03008055E54A6401704FE55FB40205755104F2
:100A13008045E55FB403327FCD7ECC7D4C7C3EAB1D
:100A230055AA54A953A8521202CC401DAF55AE5437
:100A3300AD53AC527BCD7ACC79CC78BD1200358FD7
:100A4300558E548D538C52800EE55FB40409E542F4
:0E0A5300C39402400215427F647E001215B863
:010A61002272
:04159D00E4FD7F16D4
:1015A100EFC3941C5008EF90158193FF80027F11C7
:0715B10074262DF8A60722A5
:10123F00E54114600E14600F146010240370107FCA
:10124F0001800E7F02800A7F0480067F0880027F64
:10125F00107E80E4FDEF5E6004D2908002C290C2E7
:10126F0091D291C291EEC313FE53067F0DBD08E5D7
:10127F00E541D39403500974262541F8E6FF8022F7
:10128F00E54A24FE600E14600F14601024037010E2
:10129F007FF7800E7FFB800A7FFD80067FFF800235
:1012AF007FFEE541D3940350038541680541E54135
:1012BF00D394044003E4F5417E80E4FDEF5E6004C7
:1012CF00D2908002C290C291D291C291EEC313FE0E
:0A12DF000DBD08E8C292D292C2923F
:0112E90022E2
:100C5E00E4F510F511F512F513F512F51375101CD8
:100C6E00F511D3E51194FFE510941C505CAC12AD58
:100C7E0013E412034A7BC37AF579487840120126B1
:100C8E00E4FBFAF9784312022F120E81E4FBFA7993
:100C9E0080783F120035E4FBFA7960784112012624
:100CAE0012118FE4FBFAF978421200351203838594
:100CBE001182851083EFF00511E511700205100504
:100CCE0013E513709D05128099E4F512F513751056
:100CDE001DF511D3E511947FE510941D5045AC120E
:100CEE00AD13E412034AE4FBFAF9784312022FE43F
:100CFE00FBFA79F0784112012612118FE4FBFA7992
:100D0E00447842120035120383851182851083EFD9
:100D1E00F00511E511700205100513E51370B40509
:100D2E001280B0E4F512F51375101D751180D3E520
:100D3E001194FFE510941D504DAC12AD13E4120347
:100D4E004AE4FBFAF9784312022FE4FBFA79F078C1
:100D5E004112012612118FA804A905AA06AB07E4B9
:100D6E00FFFE7D9E7C421200311203838511828527
:100D7E001083EFF00511E511700205100513E51350
:100D8E0070AC051280A875101E7511008511828534
:100D9E001083744FF00511E51170020510B480EC4C
:100DAE00E510B41EE775101E751180851182851031
:100DBE00837431F00511E51170020510B400ECE5F5
:100DCE0010B41FE7E4F512F51375101FF511D3E5F6
:100DDE001194FFE510941F503BAE12AF137C007DB3
:100DEE001E120451EEFDE412034A12118FE4FBFAB7
:100DFE00794478421200351203838511828510835F
:100E0E00EFF00511E511700205100513E51370BE24
:040E1E00051280BA7F
:010E220022AD
:100A6200E54A64016003020C5DE55124FE70030255
:100A72000AFC147003020B72147003020BE82403C5
:100A82006003020C5DD3E54494FFE543941C4006E9
:100A920075431C754400854482854383E024E0FD50
:100AA200E434FFFCE412034AAB55AA54A953A852FA
:100AB200120126E4FBFAF978421200351203838F01
:100AC20049AC42E412034F7BCD7ACC79CC783F1209
:100AD200022FC004C005C006C007E5442401FDE49E
:100AE2003543FCE412034AD003D002D001D00012F5
:100AF20000351203838E438F4422D3E54C94FFE5E5
:100B02004B941D4006754B1D754C00854C82854BE0
:100B120083E024C0FDE434FFFCE412034AAB55AA8F
:100B220054A953A852120126E4FBFA7980784212A2
:100B320000351203838F49AC42E412034F7BCD7A16
:100B4200CC79CC783F12022FC004C005C006C00782
:100B5200E54C2401FDE4354BFCE412034AD003D0FA
:100B620002D001D0001200351203838E4B8F4C222B
:100B7200D3E55894FFE557941E400675571E7558E5
:100B820000855882855783E024C0FDE434FFFCE4ED
:100B920012034AAB55AA54A953A852120126E4FBE8
:100BA200FA798078421200351203838F49AC42E40D
:100BB20012034F7BCD7ACC79CC783F12022FC0043E
:100BC200C005C006C007E5582401FDE43557FCE422
:100BD20012034AD003D002D001D000120035120312
:100BE200838E578F5822D3E55C94FFE55B941F40B8
:100BF20006755B1F755C00855C82855B83E024C0A3
:100C0200FDE434FFFCE412034AAB55AA54A953A8ED
:100C120052120126E4FBFA7980784212003512035F
:100C2200838F49AC42E412034F7BCD7ACC79CC78E6
:100C32003F12022FC004C005C006C007E55C2401B4
:100C4200FDE4355BFCE412034AD003D002D001D0AC
:0C0C5200001200351203838E5B8F5C22C1
:1014EC00852A36E536D395614003853661E536C3EA
:1014FC0095605003853660D3E53E9400E53D940835
:10150C004039E5619560FDE49400FCE412034AE483
:10151C00FBFA79A078401201267BCD7ACC798C78B5
:10152C003F12022FE4FBFAF9784312022F8F508EF0
:0C153C004F8D4E8C4D75608075618022D3
:1010C600852A36E536D394804066E556D39480501B
:1010D6005F853D24853E25E5644563604DC3E56433
:1010E6009525FDE5639524FC12034A12001EC004F3
:1010F600C005C006C007AC34AD35EC12034AD003B8
:10110600D002D001D0001200351203838E348F3501
:10111600AF48AE47AD46AC45E4FBFA7980783F125E
:1011260000358F488E478D468C458524638525641A
:10113600D3E53E9400E53D9408404AAC34AD35EC29
:1011460012034AAB48AA47A946A84512022FA8048B
:10115600A905AA06AB07E4FFFE7DFA7C4412022F1E
:1011660012118F1203838E3F8F40E4F534F535F567
:1011760063F564F524F525F548F547F546F5457517
:091186005681753681853656222A
:10141400852A36E536D39522400CE522D395214022
:10142400057523018022E536C39522501BE52295DC
:10143400214015E5236011E522948C40080532E52E
:101444003270020531E4F523852221853622052EEA
:10145400E52E7002052DC39410E52D94274022AC8F
:1014640031AD32E412034AE4FBFA792078401201E8
:10147400261203838E598F5AE4F531F532F52DF592
:011484002E39
:011485002244
:1015B800EF1FAA0670011E4A60107C037DE8ED1D2E
:0A15C800AA0470011C4A60E880F4D8
:0115D20022F6
:1004F700121600E54A14602B147003020686147066
:100507000302068C147003020773240460030207B6
:10051700E275380112159D0D7F161215A10D7F1674
:100527000205D7852A2FE53860030207E2E55F64F5
:10053700017031C3E53A94D0E53994075022E4FDC0
:100547007F151215A1D3E54294E774809483400385
:100557007542E7E542D394005003E4F54202065999
:10056700E40205E6E55F6402706FE551B401151218
:10057700159D0D7F051215A10D7F011215A10D7F88
:10058700170207DFE551B4021512159D0D7F1812EA
:1005970015A10D7F191215A10D7F010207DFE55186
:1005A700B4031512159D0D7F051215A10D7F1A12A3
:1005B70015A10D7F140207DFE551640460030207EC
:1005C700E2FD7F161215A10D7F051215A10D7F18EB
:1005D7001215A10D7F160207DFE55F6403704CFF5C
:1005E700FE7D207C41AB55AA54A953A8521201267F
:1005F7001203838F33E4FD7F141215A1E53375F0E1
:10060700648475F00A84AFF00D1215A1E53375F017
:100617000A8475F00A84E5F0240AFF0D1215A1E596
:100627003375F00A84AFF00D0207DFE55F640460FD
:10063700030207E2FD7F151215A1D3E54294E77483
:1006470080948340037542E7E542D394005003E466
:10065700F542E54275F0648475F00A84AFF07D01D8
:100667001215A1E54275F00A8475F00A84AFF00D02
:100677001215A1E54275F00A84AFF00D0207DF8578
:100687002A2F0207E2852A2FE53860030207E2C313
:10069700E53A94D0E53994075079752C01E52B6438
:1006A7000160030207E2F52BFD7F151215A1D3E5C3
:1006B7004094E7E53F94034006753F037540E7D351
:1006C700E5409400E53F94005005E4F53FF540AE62
:1006D7003FAF407C007D641204637C007D0A1204F6
:1006E70063AF057D011215A1AE3FAF407C007D0AC7
:1006F7001204637C007D0A120463AF057D021215A4
:10070700A1AE3FAF407C007D0A120463AF057D03B5
:100717000207DF752B01E52C640160030207E2F590
:100727002CFFFE7D207C41AB50AA4FA94EA84D124D
:1007370001261203838F30E4FD7F141215A1E530E3
:1007470075F0648475F00A84AFF00D1215A1E530D9
:1007570075F00A8475F00A84E5F0240AFF0D121576
:10076700A1E53075F00A84AFF00D806C852A2FE47F
:10077700FD7F1B1215A1D3E55A94E7E55994034071
:1007870006755903755AE7D3E55A9400E55994005D
:100797005005E4F559F55AAE59AF5A7C007D6412FD
:1007A70004637C007D0A120463AF057D011215A165
:1007B700AE59AF5A7C007D0A1204637C007D0A1291
:1007C7000463AF057D021215A1AE59AF5A7C007DB7
:1007D7000A120463AF057D031215A1E56720E00344
:0C07E7000204FA1207F35367FE0204FA42
:10002E000203EFE86480F8E933E83360110460F00E
:10003E00ED33EC337009E8FCE9FDEAFEEBFF220438
:10004E0060DED3EB9FEA9EE99DE8C2E78CF0C2F733
:10005E0095F0400CE8CCF8E9CDF9EACEFAEBCFFBFF
:10006E001203BA85D0F05804700320D5B3E804709B
:10007E00075002B2D50203F992D5EC0460F7E4CC36
:10008E00C0E0C398F8603B94186008400DD0E0FBC8
:10009E000203D1E4FBFAC9FC8028E830E406E4C987
:1000AE00FBE4CAFCE830E305E4C9CACBFCE854071C
:1000BE006010F8C3E913F9EA13FAEB13FBEC13FC27
:1000CE00D8F130F52FC3E49CFCEF9BFFEE9AFEEDCA
:1000DE0099FDD0E0FBEF4E4D4C701222DB03020374
:1000EE00F6EC2CFCEF33FFEE33FEED33FDED30E797
:1000FE00EB0203D1EF2BFFEE3AFEED39FDD0E0FB24
:10010E0050130BBB00030203F9ED13FDEE13FEEFCC
:08011E0013FFEC13FC0203D1F6
:10012600EC4D6011E8497017ED33EC3304600DE4D3
:10013600FCFFFEFD22E933E8330470F80203EF12F8
:1001460003BA58046009E4CC2481500628500902F9
:1001560003F92840030203F6C0E0EB4A7044B98075
:1001660006D0E0FB0203E5EF4E701CBD8008EBFFF6
:10017600EAFEE9FD80EBE98DF0A4FEE5F002020F50
:10018600E9CDF9EAFEEBFFEF89F0A4FCE5F0CE89B4
:10019600F0A42EFFE435F0CD89F0A42DFEE435F071
:1001A6008067EF4E7005BD80D780C3EF8BF0A4AC9F
:1001B600F0EE8BF0A42CFCE435F0F8EF8AF0A42CDA
:1001C600E5F038FCE433CB8DF0A42CFCE5F03BF8ED
:1001D600EE8AF0A42CFCE5F038F8E433CF89F0A4DD
:1001E6002CFCE5F038CF3400CE89F0A42FFFE5F0E3
:1001F6003EFEE433C98DF0A42EFEE5F039CD8AF03B
:10020600A42FFFE5F03EFEE43DFD33D0E0FB5007B2
:100216000BBB000F0203F9EC2CFCEF33FFEE33FEB1
:06022600ED33FD0203D1DF
:10022C000203F9EC5D046005E8590470030203EF66
:10023C001203BA580460F6EC4860F2EC7004FDFE50
:10024C00FF22C860DB2481C85009C39860025006A5
:10025C000203F69850CAF582E9294B4A7005AB8225
:10026C000203E575F0007C1A7880C3EF9BEE9AEDE3
:10027C0099400DC3EF9BFFEE9AFEED99FDE842F01D
:10028C00DC23ACF0D0E0FFD0E0FED0E0FDAB822070
:10029C00E7101BEB60BAEC2CFCEF33FFEE33FEEDFA
:1002AC0033FD0203D1E803F830E705C0F075F00028
:1002BC00EF2FFFEE33FEED33FD40B830E7C280AADE
:1002CC0074F8CC6480CCC86480C8F58204604FC3D9
:1002DC00EB9FF5F0EA9E42F0E99D42F0E89C45F078
:1002EC00603C501DE5825FFFE582D313CB5BCBF402
:1002FC002B5582FB50280ABA002409B9002008802B
:10030C001DE5825BFBE582D313CF5FCFF4C3132FC4
:10031C005582FF50090EBE00050DBD00010CC3EB4C
:10032C009FF5F0EA9E42F0E99D42F0E89C45F060B2
:09033C0007CC4820E701B3EC22D4
:1003450075F020800E75F010800575F0087D007E33
:10035500007F003392D530D5031204B8EC3340103A
:10036500EF33FFEE33FEED33FDEC33FCD5F0ED223C
:0E037500E5F0247EA2D513CC92E7CDCEFF2278
:10038300EDD2E7CD33EC3392D524814006E4FFFE72
:10039300FDFC22FCE4CFCECDCC24E0501174FF80D1
:1003A300EDC3CC13CCCD13CDCE13CECF13CF04706E
:0703B300F030D5DE0204B8B2
:0D001E00ED33EC3360065004EC6480FC22EE
:100E23003A70FA83BCAAE9E43E81E0F8BF9DE9E6A3
:100E33003F80000039283C1ABB9969663DA335E31E
:100E4300BF255DE73FC90FDB418DDBCCC44936EEDF
:100E530045C9913FC5B0F83D3F800000C317F53445
:100E6300452FFA73C60AFDDD120F1204A2E19200A8
:100E73001420E015900E2374041204048026120F2C
:100E83001230E102B20020E0EB8C148D158E168F28
:100E930017900E377404120404A814A915AA16ABEC
:100EA30017120126ED4C6007300004EC6480FC222D
:100EB300120F12C0E08C148D158E168F17900E5BD7
:100EC3007403120404A814A915AA16AB1712012659
:100ED300ECC514FCEDC515FDEEC516FEEFC517FFF9
:100EE300900E4B7403120404D082A814A915AA16F9
:100EF300AB17E58230E00712022FB20080A6EFCBDA
:100F0300FFEECAFEEDC9FDECC8FC12022F8095ED81
:100F130033EC547FCC33920024605007D0E0D0E010
:100F23000203EF7B837AF97922783E120126EDF9E9
:100F330033ECF83324815011EFFBEEFA12038312E2
:100F43000345ECB2E7FC120035ED33EC33602F249C
:100F530003F8C313FCED92E7FDE82481E4501FEC92
:100F6300F8EDF9EEFAEFFB120383EF04C2E0FCF5B0
:100F73008212034FECB2E7FC120035E58203FAED6F
:0E0F830033EC3360071413FCED92E7FDEA2215
:10118F008F178E168D158C1474FFFFFEFDFCAB1799
:10119F00AA16A915A814C31204C6602C7F807E96C8
:1011AF007D187C4BAB17AA16A915A8141202CC6098
:1011BF000250157F807E967D187CCBAB17AA16A99F
:1011CF0015A8141202CC5009AF17AE16AD15AC14FA
:1011DF0022AF17AE16AD15AC141203838F1B8E1AE8
:1011EF008D198C18EC120345C8ECC8C9EDC9CAEEAD
:1011FF00CACBEFCBAF17AE16AD15AC14120031E45E
:10120F00FBFAF9F81202CC601A401874FF251BF58F
:10121F001BE51A34FFF51AE51934FFF519E51834F3
:10122F00FFF518AF1BAE1AAD19AC18EC120345221F
:1003BA00E9D2E7C933E833F892D5EDD2E7CD33EC89
:0703CA0033FC5002B2D52202
:1003D100EC30E7100FBF000C0EBE00080DBD00048D
:1003E1000BEB6014A2D5EB13FCED92E7FD2274FF39
:1003F100FCFDFEFF22E480F8A2D574FF13FC7D8092
:03040100E480EFA5
:10040400C0E0EFFBEEFAEDF9ECF8120126D0E0F5CE
:10041400F0EFFBEEFAEDF9ECF81204D7A3A3A3A3D3
:10042400E8C0E0E9C0E0EAC0E0EBC0E0C0F01201DF
:10043400261204E7A3A3A3A3120035D0F0D0E0FB57
:0D044400D0E0FAD0E0F9D0E0F8D5F0D422F5
:0300000002138860
:0C138800787FE4F6D8FD7581680213CF71
:10045100EF8DF0A4A8F0CF8CF0A428CE8DF0A42EBF
:02046100FE2279
:10046300BC000BBE0029EF8DF084FFADF022E4CC7D
:10047300F875F008EF2FFFEE33FEEC33FCEE9DEC46
:10048300984005FCEE9DFE0FD5F0E9E4CEFD22ED8C
:10049300F8F5F0EE8420D21CFEADF075F008EF2FD6
:1004A300FFED33FD4007985006D5F0F222C398FDC7
:0504B3000FD5F0EA2264
:0E04B800C3E49FFFE49EFEE49DFDE49CFC2255
:1004C600EB9FF5F0EA9E42F0E99D42F0E89C45F08C
:0104D6002203
:1004D700E493FC740193FD740293FE740393FF226B
:1004E700E493F8740193F9740293FA740393FB226B
:101394000204F7E493A3F8E493A34003F68001F274
:1013A40008DFF48029E493A3F85407240CC8C3335A
:1013B400C4540F4420C8834004F456800146F6DF29
:1013C400E4800B01020408102040809012EAE47EBD
:1013D400019360BCA3FF543F30E509541FFEE4931E
:1013E400A360010ECF54C025E060A840B8E493A3E5
:1013F400FAE493A3F8E493A3C8C582C8CAC583CA10
:10140400F0A3C8C582C8CAC583CADFE9DEE780BEC7
:011387000065
:00000001FF
