:10148D00117D23294D89813D0109107C22284C882D
:0B149D00803C00085187EF15C3E70DED
:1012B200012C00012B00015700025500000425EF0C
:1012C200EFEFEF013A0002320000025A000001295A
:1012D20000012D00014B0002360000023400000222
:1012E2003C1C0002441D0002511E0002531F00015B
:1012F2005D00014300014A01014200013B0A044C26
:101302003F80000002380000044600000000012A6D
:1013120000012100013100015000012480015C80A4
:10132200022E00000222000002580000043E0000CB
:05133200000001300184
:0F14E7005389F0438902758A06758C06D28C22D0
:0F14F60053890F438920758B06758D06D28E2280
:0F150500D2AFD2A9D2ABD2ADD2B9C2BBC2BD2236
:0D000E00759D0875BC837F027E0002147290
:1014D5004397011214E71214F612150512000E02B5
:0214E5000BE01A
:03000B000213BB22
:1013BB00C0E0C0F0C083C082C0D075D000C000C0F8
:1013CB0001C002C003C004C005C006C007C2AF0500
:1013DB005BE55B7002055A121421E55B6403455A09
:1013EB00700312077BE55B6405455A700C12118282
:1013FB001214A8755A00755B00D2AFD007D006D077
:10140B0005D004D003D002D001D000D0D0D082D0F0
:06141B0083D0F0D0E032A6
:03001B00020F13BE
:100F1300C0E0C0F0C083C082C0D075D000C000C0A4
:100F230001C002C003C004C005C006C007C2AF05AC
:100F330033E53370020532E543B403061213381266
:100F43001009E543B40132853634853735D3E537A7
:100F530094F0E536941B4006753600753700E52995
:100F630024C025E0853782853683F07555008529B1
:100F7300560537E53770020536E543B40224D3E559
:100F83003594F0E534941B400675340075350085BF
:100F93003582853483E0C313F54B0535E53570029F
:100FA3000534E543B40332853634853735D3E53725
:100FB3009400E53694084006753600753700E52938
:100FC30024C025E0853782853683F0755500852951
:100FD300560537E53770020536E533B4A00BE53225
:100FE300B40F06753200753300D2AFD007D006D0E8
:100FF30005D004D003D002D001D000D0D0D082D00D
:0610030083D0F0D0E032C2
:03002B000214C1FB
:1014C100C0E0C0D075BC83E5BDC3132440F529D06D
:0414D100D0D0E03265
:1014210075BC8BE54324FE601414601E24027025F4
:10143100904000E52DF0902000E542F02290400020
:10144100E52DF0902000E54BF022904000E52DF0D5
:06145100902000E4F022EF
:1014A800E55D20E01330B504055E800930B40974A9
:0914B80005255EF55E435D01228D
:1009C900E55E14B408004003020BDF9009E275F0FC
:1009D90003A4C58325F0C583730209FA0209FA0243
:1009E90009FA020A50020A65020AC5020B1E020B25
:1009F90083855E43753001E4F510F511E4F512F5D0
:100A0900131214577D01AF4312145B7D027F161236
:100A1900145B7D037F1612145B0513E51370020541
:100A290012C3940FE512940040D70511E511700225
:100A39000510C394E8E510940340C1E543B40103EC
:100A4900755701E4F53022E543B4010DE557B404C7
:100A590006755701020BD80557020BD8E543640107
:100A69007057E557B40205754A01804DE557B4033F
:100A790032E4FFFE7D807C40AB4FAA4EA94DA84CC5
:100A89001202CC6002501CAF4FAE4EAD4DAC4CE4DF
:100A9900FBFA7980783F1200358F4F8E4E8D4D8C41
:100AA9004C8016E557B40411D3E53B94DE74809469
:100AB900835006740A253BF53B020BD8E5436401D4
:100AC9007050E557B40205754A028046E557B403EC
:100AD9002FE4FFFEFD7C40AB4FAA4EA94DA84C1256
:100AE90002CC401CAF4FAE4EAD4DAC4CE4FBFA7995
:100AF9008078BF1200358F4F8E4E8D4D8C4C8012F1
:100B0900E557B4040DE53BC39414400674F6253B40
:100B1900F53B020BD8E5436401705DE557B4020566
:100B2900754A038053E557B403347FCD7ECC7D9C51
:100B39007C40AB4FAA4EA94DA84C1202CC60025082
:100B49001DAF4FAE4EAD4DAC4C7BCD7ACC79CC7848
:100B59003D1200358F4F8E4E8D4D8C4C801AE557C6
:100B6900B40415AC3BE412034F7B337AF3797978FB
:100B7900441202CC4002053B8055E5436401704FA5
:100B8900E557B40205754A048045E557B403327F39
:100B9900CD7ECC7D4C7C3EAB4FAA4EA94DA84C12C4
:100BA90002CC401DAF4FAE4EAD4DAC4C7BCD7ACC97
:100BB90079CC78BD1200358F4F8E4E8D4D8C4C807F
:100BC9000EE557B40409E53BC394024002153B7F87
:060BD900647E001214729C
:010BDF0022F3
:04145700E4FD7F161B
:10145B00EFC3941B5008EF90148D93FF80027F1104
:07146B0074252DF8A60722ED
:10118200E53A14600E14600F146010240370107F8F
:1011920001800E7F02800A7F0480067F0880027F22
:1011A200107E80E4FDEF5E6004D2908002C290C2A5
:1011B20091D291C291EEC313FE53067F0DBD08E595
:1011C200E53AD3940350097425253AF8E6FF801BCB
:1011D200E54324FE600B14600C2402700C7FF78040
:1011E2000A7FFB80067FFD80027FFEE53AD39403EF
:1011F2005003853A5E053AE53AD394044003E4F598
:101202003A7E80E4FDEF5E6004D2908002C290C21A
:1012120091D291C291EEC313FE0DBD08E8C292D2E3
:0312220092C292E3
:0112250022A6
:100BE000E4F510F511F512F513F512F51375101C57
:100BF000F511D3E51194FFE510941C505CAC12ADD7
:100C000013E412034A7BC37AF5794878401201262F
:100C1000E4FBFAF9784312022F120E03E4FBFA798F
:100C200080783F120035E4FBFA79607841120126A2
:100C30001210D2E4FBFAF9784212003512038385D0
:100C40001182851083EFF00511E511700205100582
:100C500013E513709D05128099E4F512F5137510D4
:100C60001DF511D3E511947FE510941D5045AC128C
:100C7000AD13E412034AE4FBFAF9784312022FE4BD
:100C8000FBFA79F078411201261210D2E4FBFA79CE
:100C9000447842120035120383851182851083EF58
:100CA000F00511E511700205100513E51370B40588
:100CB0001280B0E4F512F51375101D751180D3E59F
:100CC0001194FFE510941D504DAC12AD13E41203C6
:100CD0004AE4FBFAF9784312022FE4FBFA79F07840
:100CE000411201261210D2A804A905AA06AB07E4F6
:100CF000FFFE7D9E7C4212003112038385118285A6
:100D00001083EFF00511E511700205100513E513CE
:100D100070AC051280A875101E75110085118285B2
:100D20001083744FF00511E51170020510B480ECCA
:100D3000E510B41EE775101E7511808511828510AF
:100D4000837431F00511E51170020510B400ECE573
:100D500010B41FE7E4F512F51375101FF511D3E574
:100D60001194FFE510941F503BAE12AF137C007D31
:100D70001E120451EEFDE412034A1210D2E4FBFAF3
:100D800079447842120035120383851182851083DD
:100D9000EFF00511E511700205100513E51370BEA3
:040DA000051280BAFE
:010DA400222C
:10077B00E543640160030209C8E54A24FE700302E5
:10078B0008611470030208D9147003020951240381
:10079B0060030209C8D3E53D94FFE53C941C504C23
:1007AB00E4FFFE7D807C3FAB4FAA4EA94DA84C12B7
:1007BB0002CC602D853D82853C83E024E0FDE43452
:1007CB00FFFCE412034AAB4FAA4EA94DA84C1201F1
:1007DB0026E4FBFAF978421200351203838F42802C
:1007EB003C853D82853C83E0F5428031753C1C7530
:1007FB003D00853D82853C83E024E0FDE434FFFC35
:10080B00E412034AAB4FAA4EA94DA84C120126E4A1
:10081B00FBFAF978421200351203838F42AC3BE4AA
:10082B0012034F7BCD7ACC79CC783F12022FC004C8
:10083B00C005C006C007E53D2401FDE4353CFCE4E2
:10084B0012034AD003D002D001D00012003512039C
:10085B00838E3C8F3D22D3E54594F3E544941D50A4
:10086B0002800675441D754500854582854483E0ED
:10087B0024C0FDE434FFFCE412034AAB4FAA4EA99B
:10088B004DA84C120126E4FBFA7980784212003510
:10089B001203838F42AC3BE412034F7BCD7ACC79AE
:1008AB00CC783F12022FC004C005C006C007E54537
:1008BB002401FDE43544FCE412034AD003D002D0FA
:1008CB0001D0001200351203838E448F4522D3E5ED
:1008DB005294FFE551941E5002800675511E7552BD
:1008EB0000855282855183E024C0FDE434FFFCE493
:1008FB0012034AAB4FAA4EA94DA84C120126E4FB9A
:10090B00FA798078421200351203838F42AC3BE4B4
:10091B0012034F7BCD7ACC79CC783F12022FC004D7
:10092B00C005C006C007E5522401FDE43551FCE4C7
:10093B0012034AD003D002D001D0001200351203AB
:10094B00838E518F5222D3E55494FFE553941F505D
:10095B0002800675531F755400855482855383E0BE
:10096B0024C0FDE434FFFCE412034AAB4FAA4EA9AA
:10097B004DA84C120126E4FBFA798078421200351F
:10098B001203838F42AC3BE412034F7BCD7ACC79BD
:10099B00CC783F12022FC004C005C006C007E55437
:1009AB002401FDE43553FCE412034AD003D002D0FA
:0E09BB0001D0001200351203838E538F542298
:10133800852931E531D395244003853124E531C32E
:10134800955C500385315CD3E5379400E536940805
:101358004060AC5CE412034FE4FBFA79A0784012D9
:1013680001267BCD7ACC798C783F12022FC004C03D
:1013780005C006C007AC24E412034FE4FBFA79A0C9
:1013880078401201267BCD7ACC798C783F12022FD7
:10139800D003D002D001D000120031E4FBFAF97872
:1013A8004312022F8F498E488D478C46755C807595
:0313B8002480226C
:10100900852931E531D394804066E550D3948050E9
:101019005F853622853723E5594558604DC3E55923
:101029009523FDE5589522FC12034A12001EC004BF
:10103900C005C006C007AC2EAD2FEC12034AD00381
:10104900D002D001D0001200351203838E2E8F2FCB
:10105900AF41AE40AD3FAC3EE4FBFA7980783F1238
:1010690000358F418E408D3F8C3E8522588523590E
:10107900D3E5379400E5369408404AAC2EAD2FEC01
:1010890012034AAB41AA40A93FA83E12022FA80465
:10109900A905AA06AB07E4FFFE7DFA7C4412022FDC
:1010A9001210D21203838E388F39E4F52EF52FF5FD
:1010B90058F559F522F523F541F540F53FF53E750B
:0910C900508175318185315022FE
:10147200EF1FAA0670011E4A60107C037DE8ED1D75
:0A148200AA0470011C4A60E880F41F
:01148C00223D
:1004F7001214D5E5431460251470030206801470A6
:10050700030206862403600302076A75300112148A
:10051700570D7F1612145B0D7F160205D185292D05
:10052700E530600302076AE55764017031C3E533BC
:1005370094D0E53294075022E4FD7F1512145BD363
:10054700E53B94E7748094834003753BE7E53BD331
:1005570094005003E4F53B020653E40205E0E55737
:100567006402706FE54AB401151214570D7F051226
:10057700145B0D7F0112145B0D7F17020767E54AB5
:10058700B402151214570D7F1812145B0D7F191240
:10059700145B0D7F01020767E54AB4031512145770
:1005A7000D7F0512145B0D7F1A12145B0D7F140269
:1005B7000767E54A6404600302076AFD7F161214A1
:1005C7005B0D7F0512145B0D7F1812145B0D7F16F0
:1005D700020767E5576403704CFFFE7D207C41AB43
:1005E7004FAA4EA94DA84C1201261203838F21E46E
:1005F700FD7F1412145BE52175F0648475F00A849D
:10060700AFF00D12145BE52175F00A8475F00A84CA
:10061700E5F0240AFF0D12145BE52175F00A84AF9B
:10062700F00D020767E5576404600302076AFD7F60
:100637001512145BD3E53B94E774809483400375EC
:100647003BE7E53BD394005003E4F53BE53B75F00E
:10065700648475F00A84AFF07D0112145BE53B7585
:10066700F00A8475F00A84AFF00D12145BE53B7550
:10067700F00A84AFF00D02076785292D02076A8506
:10068700292DE530600302076AC3E53394D0E532CC
:1006970094075078752C01E52B6401600302076A03
:1006A700F52BFD7F1512145BD3E53994E7E53894F4
:1006B7000340067538037539E7D3E5399400E53803
:1006C70094005005E4F538F539AE38AF397C007D34
:1006D700641204637C007D0A120463AF057D011276
:1006E700145BAE38AF397C007D0A1204637C007D51
:1006F7000A120463AF057D0212145BAE38AF397C72
:10070700007D0A120463AF057D038054752B01E554
:100717002C6401704EF52CFFFE7D207C41AB49AA6D
:1007270048A947A8461201261203838F2AE4FD7FB2
:100737001412145BE52A75F0648475F00A84AFF02F
:100747000D12145BE52A75F00A8475F00A84E5F04A
:10075700240AFF0D12145BE52A75F00A84AFF00D29
:1007670012145BE55D20E0030204FA1209C9535D28
:04077700FE0204FA80
:10002E000203EFE86480F8E933E83360110460F00E
:10003E00ED33EC337009E8FCE9FDEAFEEBFF220438
:10004E0060DED3EB9FEA9EE99DE8C2E78CF0C2F733
:10005E0095F0400CE8CCF8E9CDF9EACEFAEBCFFBFF
:10006E001203BA85D0F05804700320D5B3E804709B
:10007E00075002B2D50203F992D5EC0460F7E4CC36
:10008E00C0E0C398F8603B94186008400DD0E0FBC8
:10009E000203D1E4FBFAC9FC8028E830E406E4C987
:1000AE00FBE4CAFCE830E305E4C9CACBFCE854071C
:1000BE006010F8C3E913F9EA13FAEB13FBEC13FC27
:1000CE00D8F130F52FC3E49CFCEF9BFFEE9AFEEDCA
:1000DE0099FDD0E0FBEF4E4D4C701222DB03020374
:1000EE00F6EC2CFCEF33FFEE33FEED33FDED30E797
:1000FE00EB0203D1EF2BFFEE3AFEED39FDD0E0FB24
:10010E0050130BBB00030203F9ED13FDEE13FEEFCC
:08011E0013FFEC13FC0203D1F6
:10012600EC4D6011E8497017ED33EC3304600DE4D3
:10013600FCFFFEFD22E933E8330470F80203EF12F8
:1001460003BA58046009E4CC2481500628500902F9
:1001560003F92840030203F6C0E0EB4A7044B98075
:1001660006D0E0FB0203E5EF4E701CBD8008EBFFF6
:10017600EAFEE9FD80EBE98DF0A4FEE5F002020F50
:10018600E9CDF9EAFEEBFFEF89F0A4FCE5F0CE89B4
:10019600F0A42EFFE435F0CD89F0A42DFEE435F071
:1001A6008067EF4E7005BD80D780C3EF8BF0A4AC9F
:1001B600F0EE8BF0A42CFCE435F0F8EF8AF0A42CDA
:1001C600E5F038FCE433CB8DF0A42CFCE5F03BF8ED
:1001D600EE8AF0A42CFCE5F038F8E433CF89F0A4DD
:1001E6002CFCE5F038CF3400CE89F0A42FFFE5F0E3
:1001F6003EFEE433C98DF0A42EFEE5F039CD8AF03B
:10020600A42FFFE5F03EFEE43DFD33D0E0FB5007B2
:100216000BBB000F0203F9EC2CFCEF33FFEE33FEB1
:06022600ED33FD0203D1DF
:10022C000203F9EC5D046005E8590470030203EF66
:10023C001203BA580460F6EC4860F2EC7004FDFE50
:10024C00FF22C860DB2481C85009C39860025006A5
:10025C000203F69850CAF582E9294B4A7005AB8225
:10026C000203E575F0007C1A7880C3EF9BEE9AEDE3
:10027C0099400DC3EF9BFFEE9AFEED99FDE842F01D
:10028C00DC23ACF0D0E0FFD0E0FED0E0FDAB822070
:10029C00E7101BEB60BAEC2CFCEF33FFEE33FEEDFA
:1002AC0033FD0203D1E803F830E705C0F075F00028
:1002BC00EF2FFFEE33FEED33FD40B830E7C280AADE
:1002CC0074F8CC6480CCC86480C8F58204604FC3D9
:1002DC00EB9FF5F0EA9E42F0E99D42F0E89C45F078
:1002EC00603C501DE5825FFFE582D313CB5BCBF402
:1002FC002B5582FB50280ABA002409B9002008802B
:10030C001DE5825BFBE582D313CF5FCFF4C3132FC4
:10031C005582FF50090EBE00050DBD00010CC3EB4C
:10032C009FF5F0EA9E42F0E99D42F0E89C45F060B2
:09033C0007CC4820E701B3EC22D4
:1003450075F020800E75F010800575F0087D007E33
:10035500007F003392D530D5031204B8EC3340103A
:10036500EF33FFEE33FEED33FDEC33FCD5F0ED223C
:0E037500E5F0247EA2D513CC92E7CDCEFF2278
:10038300EDD2E7CD33EC3392D524814006E4FFFE72
:10039300FDFC22FCE4CFCECDCC24E0501174FF80D1
:1003A300EDC3CC13CCCD13CDCE13CECF13CF04706E
:0703B300F030D5DE0204B8B2
:0D001E00ED33EC3360065004EC6480FC22EE
:100DA5003A70FA83BCAAE9E43E81E0F8BF9DE9E622
:100DB5003F80000039283C1ABB9969663DA335E39D
:100DC500BF255DE73FC90FDB418DDBCCC44936EE5E
:100DD50045C9913FC5B0F83D3F800000C317F534C4
:100DE500452FFA73C60AFDDD120E9404A2E19200A6
:100DF5001420E015900DA574041204048026120E2B
:100E05009430E102B20020E0EB8C148D158E168F24
:100E150017900DB97404120404A814A915AA16ABE9
:100E250017120126ED4C6007300004EC6480FC22AB
:100E3500120E94C0E08C148D158E168F17900DDD53
:100E45007403120404A814A915AA16AB17120126D7
:100E5500ECC514FCEDC515FDEEC516FEEFC517FF77
:100E6500900DCD7403120404D082A814A915AA16F6
:100E7500AB17E58230E00712022FB20080A6EFCB58
:100E8500FFEECAFEEDC9FDECC8FC12022F8095ED00
:100E950033EC547FCC33920024605007D0E0D0E08F
:100EA5000203EF7B837AF97922783E120126EDF968
:100EB50033ECF83324815011EFFBEEFA1203831261
:100EC5000345ECB2E7FC120035ED33EC33602F241B
:100ED50003F8C313FCED92E7FDE82481E4501FEC11
:100EE500F8EDF9EEFAEFFB120383EF04C2E0FCF52F
:100EF5008212034FECB2E7FC120035E58203FAEDEE
:0E0F050033EC3360071413FCED92E7FDEA2293
:1010D2008F178E168D158C1474FFFFFEFDFCAB1757
:1010E200AA16A915A814C31204C6602C7F807E9686
:1010F2007D187C4BAB17AA16A915A8141202CC6056
:101102000250157F807E967D187CCBAB17AA16A95C
:1011120015A8141202CC5009AF17AE16AD15AC14B7
:1011220022AF17AE16AD15AC141203838F1B8E1AA5
:101132008D198C18EC120345C8ECC8C9EDC9CAEE6A
:10114200CACBEFCBAF17AE16AD15AC14120031E41B
:10115200FBFAF9F81202CC601A401874FF251BF54D
:101162001BE51A34FFF51AE51934FFF519E51834B1
:10117200FFF518AF1BAE1AAD19AC18EC12034522DD
:1003BA00E9D2E7C933E833F892D5EDD2E7CD33EC89
:0703CA0033FC5002B2D52202
:1003D100EC30E7100FBF000C0EBE00080DBD00048D
:1003E1000BEB6014A2D5EB13FCED92E7FD2274FF39
:1003F100FCFDFEFF22E480F8A2D574FF13FC7D8092
:03040100E480EFA5
:10040400C0E0EFFBEEFAEDF9ECF8120126D0E0F5CE
:10041400F0EFFBEEFAEDF9ECF81204D7A3A3A3A3D3
:10042400E8C0E0E9C0E0EAC0E0EBC0E0C0F01201DF
:10043400261204E7A3A3A3A3120035D0F0D0E0FB57
:0D044400D0E0FAD0E0F9D0E0F8D5F0D422F5
:03000000021226C3
:0C122600787FE4F6D8FD75815E02126D41
:10045100EF8DF0A4A8F0CF8CF0A428CE8DF0A42EBF
:02046100FE2279
:10046300BC000BBE0029EF8DF084FFADF022E4CC7D
:10047300F875F008EF2FFFEE33FEEC33FCEE9DEC46
:10048300984005FCEE9DFE0FD5F0E9E4CEFD22ED8C
:10049300F8F5F0EE8420D21CFEADF075F008EF2FD6
:1004A300FFED33FD4007985006D5F0F222C398FDC7
:0504B3000FD5F0EA2264
:0E04B800C3E49FFFE49EFEE49DFDE49CFC2255
:1004C600EB9FF5F0EA9E42F0E99D42F0E89C45F08C
:0104D6002203
:1004D700E493FC740193FD740293FE740393FF226B
:1004E700E493F8740193F9740293FA740393FB226B
:101232000204F7E493A3F8E493A34003F68001F2D7
:1012420008DFF48029E493A3F85407240CC8C333BD
:10125200C4540F4420C8834004F456800146F6DF8C
:10126200E4800B01020408102040809012B2E47E58
:10127200019360BCA3FF543F30E509541FFEE49381
:10128200A360010ECF54C025E060A840B8E493A348
:10129200FAE493A3F8E493A3C8C582C8CAC583CA73
:1012A200F0A3C8C582C8CAC583CADFE9DEE780BE2B
:0113370000B5
:00000001FF
