:0300000002000EED
:0C000E00787FE4F6D8FD758116020055DD
:1001B4000412111111110408EFEFEFEF010E000109
:0D01C4001100011600020C0000020F0000E7
:1001D200120205120214120223E51130E0FB7D0126
:0A01E200AF1612015F5311FE80EF0B
:0F0205005389F0438902758A06758C06D28C22C4
:0F02140053890F438920758B06758D06D28E2274
:0F022300D2AFD2A9D2ABD2ADD2B9C2BBC2BD222B
:03000B00020103EC
:10010300C0E0C0F0C083C082C0D075D000C000C0C2
:1001130001C002C003C004C005C006C007C2AF05CA
:1001230010E5107002050F6414450F7012F50FF5FA
:100133001012009A1201EC050DE50D7002050CD2A8
:10014300AFD007D006D005D004D003D002D001D061
:0C01530000D0D0D082D083D0F0D0E032B9
:10009A00E50E14600B14600C2402700C7F01800AB8
:1000AA007F0280067F0480027F087E80E4FDEF5E87
:1000BA006003D38001C39290C291D291EEC313FE22
:1000CA000DBD08EA7408250EF8E6FF850E16050E22
:1000DA00E50EC394044003E4F50E7E80E4FDEF5E72
:1000EA006003D38001C39290C291D291EEC313FEF2
:0800FA000DBD08EAC292D2928A
:0101020022DA
:10015F00EFB40900504690016CF82828730201870C
:10016F0002018B02018F02019302019702019B0290
:10017F00019F0201A30201A77E1180227E7D801EB6
:10018F007E23801A7E2980167E4D80127E89800EF6
:10019F007E81800A7E3D80067E0180027E09740882
:0401AF002DF8A6067B
:0101B3002229
:1001EC00E51120E01330B5040516800930B409740C
:0901FC00052516F5164311012238
:10001A000201D2E493A3F8E493A34003F68001F229
:10002A0008DFF48029E493A3F85407240CC8C333E7
:10003A00C4540F4420C8834004F456800146F6DFB6
:10004A00E4800B01020408102040809001B4E47E91
:10005A00019360BCA3FF543F30E509541FFEE493AB
:10006A00A360010ECF54C025E060A840B8E493A372
:10007A00FAE493A3F8E493A3C8C582C8CAC583CA9D
:10008A00F0A3C8C582C8CAC583CADFE9DEE780BE55
:0101D100002D
:00000001FF
