:030000000200A754
:0C00A700787FE4F6D8FD7581180200EEA9
:100264000413111111110408EFEFEFEF010E000157
:100274001200011700010F01020C0000021000001F
:10024300E4FDFCC3ED9FEC9E5016E4FBFA000BBBF0
:1002530000010AEB64724A70F40DBD00010C80E3E7
:010263002278
:1001EB00E4F51812029E1202AD1202BCE4FD7F0A66
:1001FB0012018F7D017F0A12018F7D027F0A12018E
:10020B008F7D037F0A12018FE51230E006851718E8
:10021B005312FEE51824FE600F146014240270E8DC
:10022B00750F0112000380E0750F021202CB80D80C
:08023B00750F031202D280D0FE
:0F029E005389F0438902758A06758C06D28C222B
:0F02AD0053890F438920758B06758D06D28E22DB
:0F02BC00D2AFD2A9D2ABD2ADD2B9C2BBC2BD2292
:03000B00020133BC
:10013300C0E0C0F0C083C082C0D075D000C000C092
:1001430001C002C003C004C005C006C007C2AF059A
:1001530011E51170020510640A45107012F510F5CF
:100163001112000E120285050DE50D7002050CD269
:10017300AFD007D006D005D004D003D002D001D031
:0C01830000D0D0D082D083D0F0D0E03289
:10000E00E50E1460111460121460131460142404AD
:10001E0070127F01800E7F02800A7F0480067F08A7
:10002E0080027F107E80E4FDEF5E6003D38001C30B
:10003E009290C291D291EEC313FE0DBD08EAE50E69
:10004E00C39404500C7408250EF8E6FF850E178035
:10005E001BE50F24FE600B14600C2402700C7FF75E
:10006E00800A7FFB80067FFD80027FFF7E80E4FD9D
:10007E00EF5E6003D38001C39290C291D291EEC322
:10008E0013FE0DBD08EAC292D292C292050EE50E83
:08009E00D394044003E4F50EC5
:0100A6002237
:10018F00EFB40A00504D90019CF82828730201BA71
:10019F000201BE0201C20201C60201CA0201CE0261
:1001AF0001D20201D60201DA0201DE7E1180267E23
:1001BF007D80227E23801E7E29801A7E4D80167EB2
:1001CF008980127E81800E7E3D800A7E0180067EB0
:0B01DF000980027EEF74082DF8A606D0
:0101EA0022F2
:10028500E51220E01330B5040517800930B4097470
:09029500052517F517431201229B
:070003007D017F0102018F66
:0702CB007D017F0202018F9B
:0702D2007D017F0302018F93
:1000B3000201EBE493A3F8E493A34003F68001F277
:1000C30008DFF48029E493A3F85407240CC8C3334E
:1000D300C4540F4420C8834004F456800146F6DF1D
:1000E300E4800B0102040810204080900264E47E47
:1000F300019360BCA3FF543F30E509541FFEE49312
:10010300A360010ECF54C025E060A840B8E493A3D8
:10011300FAE493A3F8E493A3C8C582C8CAC583CA03
:10012300F0A3C8C582C8CAC583CADFE9DEE780BEBB
:010284000079
:00000001FF
