:10142300117D23294D89813D0109107C22284C8897
:0B143300803C00085187EF15C3E70D57
:10126C00015E000423EFEFEFEF013A0001430001B0
:10127C00560001310101290001280002360000024C
:10128C00340000023C1C0002441D0002501E0002EF
:10129C00521F0002320000025C0000012700012AEC
:1012AC0000014A01014200013B0A044B3F8000004F
:1012BC000159000130000238000004460000000013
:1012CC00012B00012C00012F00014F00015880015F
:1012DC005780022D000002210000025A0000043E3B
:0812EC000000000002540000A4
:0F147D005389F0438902758A06758C06D28C223A
:0F148C0053890F438920758B06758D06D28E22EA
:0F149B00D2AFD2A9D2ABD2ADD2B9C2BBC2BD22A1
:0D000E00759D0875BC837F027E00021408FA
:10146B0043970112147D12148C12149B12000E025E
:02147B000B8ED6
:03000B000212F5E9
:1012F500C0E0C0F0C083C082C0D075D000C000C0BF
:1013050001C002C003C004C005C006C007C2AF05C6
:101315005DE55D7002055C1213B7E55D6403455C30
:101325007003120992E55D6405455C700C12113C71
:1013350012143E755C00755D00D2AFD007D006D0A3
:1013450005D004D003D002D001D000D0D0D082D0B7
:0613550083D0F0D0E0326D
:03001B00020EC111
:100EC100C0E0C0F0C083C082C0D075D000C000C0F7
:100ED10001C002C003C004C005C006C007C2AF05FF
:100EE10033E53370020532E543B4030612135B1296
:100EF1000FC3E543B40132853634853735D3E53741
:100F010094F0E536941B4006753600753700E527E9
:100F110024C025E0853782853683F0755400852706
:100F2100550537E53770020536E543B40230053023
:100F3100E530C394034027753000D3E53594F0E5DF
:100F410034941B400675340075350085358285342F
:100F510083E0C313F5590535E53570020534E543E2
:100F6100B40332853634853735D3E5379400E53619
:100F710094084006753600753700E52724C025E042
:100F8100853782853683F07554008527550537E509
:100F91003770020536E533B4A00BE532B40F0675A0
:100FA1003200753300D2AFD007D006D005D004D0BF
:100FB10003D002D001D000D0D0D082D083D0F0D0E5
:020FC100E0321C
:03002B0002145765
:10145700C0E0C0D075BC83E5BDC3132440F527D0D9
:04146700D0D0E032CF
:1013B70075BC8BE54324FE601414601E240270255F
:1013C700904000E52AF0902000E542F0229040008E
:1013D700E52AF0902000E559F022904000E52AF038
:0613E700902000E4F0225A
:10143E00E55E20E01330B504055F800930B4097411
:09144E0005255FF55F435E0122F4
:10077B00E55F14B40800400302099190079475F0EB
:10078B0003A4C58325F0C583730207AC0207AC0233
:10079B0007AC0208020208170208770208D0020908
:1007AB0035855F43753101E4F510F511E4F512F56C
:1007BB00131213ED7D01AF431213F17D027F16125D
:1007CB0013F17D037F161213F10513E51370020568
:1007DB0012C3940FE512940040D70511E511700276
:1007EB000510C394E8E510940340C1E543B401033D
:1007FB00755601E4F53122E543B4010DE556B40419
:10080B000675560102098A055602098AE5436401F9
:10081B007057E556B40205754A01804DE556B40391
:10082B0032E4FFFE7D807C40AB4EAA4DA94CA84B19
:10083B001202CC6002501CAF4EAE4DAD4CAC4BE433
:10084B00FBFA7980783F1200358F4E8E4D8D4C8C94
:10085B004B8016E556B40411D3E53B94DE748094BB
:10086B00835006740A253BF53B02098AE543640174
:10087B007050E556B40205754A028046E556B4033E
:10088B002FE4FFFEFD7C40AB4EAA4DA94CA84B12AA
:10089B0002CC401CAF4EAE4DAD4CAC4BE4FBFA79E9
:1008AB008078BF1200358F4E8E4D8D4C8C4B801245
:1008BB00E556B4040DE53BC39414400674F6253B92
:1008CB00F53B02098AE5436401705DE556B4020508
:1008DB00754A038053E556B403347FCD7ECC7D9CA3
:1008EB007C40AB4EAA4DA94CA84B1202CC600250D7
:1008FB001DAF4EAE4DAD4CAC4B7BCD7ACC79CC789D
:10090B003D1200358F4E8E4D8D4C8C4B801AE5561B
:10091B00B40415AC3BE412034F7B337AF37979784B
:10092B00441202CC4002053B8055E5436401704FF5
:10093B00E556B40205754A048045E556B403327F8B
:10094B00CD7ECC7D4C7C3EAB4EAA4DA94CA84B1218
:10095B0002CC401DAF4EAE4DAD4CAC4B7BCD7ACCEB
:10096B0079CC78BD1200358F4E8E4D8D4C8C4B80D3
:10097B000EE556B40409E53BC394024002153B7FD8
:06098B00647E0012140856
:010991002243
:0413ED00E4FD7F1686
:1013F100EFC3941B5008EF90142393FF80027F11D9
:0714010074232DF8A6072259
:10113C00E53A14600E14600F146010240370107FD5
:10114C0001800E7F02800A7F0480067F0880027F68
:10115C00107E80E4FDEF5E6004D2908002C290C2EB
:10116C0091D291C291EEC313FE53067F0DBD08E5DB
:10117C00E53AD3940350097423253AF8E6FF801B13
:10118C00E54324FE600B14600C2402700C7FF78086
:10119C000A7FFB80067FFD80027FFEE53AD3940335
:1011AC005003853A5F053AE53AD394044003E4F5DD
:1011BC003A7E80E4FDEF5E6004D2908002C290C261
:1011CC0091D291C291EEC313FE0DBD08E8C292D22A
:0311DC0092C2922A
:0111DF0022ED
:100B8E00E4F510F511F512F513F512F51375101CA9
:100B9E00F511D3E51194FFE510941C505CAC12AD29
:100BAE0013E412034A7BC37AF57948784012012682
:100BBE00E4FBFAF9784312022F120DB1E4FBFA7935
:100BCE0080783F120035E4FBFA79607841120126F5
:100BDE0012108CE4FBFAF978421200351203838569
:100BEE001182851083EFF00511E5117002051005D5
:100BFE0013E513709D05128099E4F512F513751027
:100C0E001DF511D3E511947FE510941D5045AC12DE
:100C1E00AD13E412034AE4FBFAF9784312022FE40F
:100C2E00FBFA79F0784112012612108CE4FBFA7966
:100C3E00447842120035120383851182851083EFAA
:100C4E00F00511E511700205100513E51370B405DA
:100C5E001280B0E4F512F51375101D751180D3E5F1
:100C6E001194FFE510941D504DAC12AD13E4120318
:100C7E004AE4FBFAF9784312022FE4FBFA79F07892
:100C8E004112012612108CA804A905AA06AB07E48E
:100C9E00FFFE7D9E7C4212003112038385118285F8
:100CAE001083EFF00511E511700205100513E51321
:100CBE0070AC051280A875101E7511008511828505
:100CCE001083744FF00511E51170020510B480EC1D
:100CDE00E510B41EE775101E751180851182851002
:100CEE00837431F00511E51170020510B400ECE5C6
:100CFE0010B41FE7E4F512F51375101FF511D3E5C7
:100D0E001194FFE510941F503BAE12AF137C007D83
:100D1E001E120451EEFDE412034A12108CE4FBFA8B
:100D2E00794478421200351203838511828510832F
:100D3E00EFF00511E511700205100513E51370BEF5
:040D4E00051280BA50
:010D5200227E
:10099200E54364016003020B8DE54A24FE70030205
:1009A2000A2C147003020AA2147003020B18240307
:1009B2006003020B8DD3E53D94FFE53C941C400699
:1009C200753C1C753D00853D82853C83E024E0FD3D
:1009D200E434FFFCE412034AAB4EAA4DA94CA84BE7
:1009E200120126E4FBFAF978421200351203838FD2
:1009F20042AC3BE412034F7BCD7ACC79CC783F12E8
:100A0200022FC004C005C006C007E53D2401FDE475
:100A1200353CFCE412034AD003D002D001D00012CC
:100A220000351203838E3C8F3D22D3E54594FFE5CA
:100A320044941D400675441D7545008545828544D4
:100A420083E024C0FDE434FFFCE412034AAB4EAA67
:100A52004DA94CA84B120126E4FBFA798078421288
:100A620000351203838F42AC3BE412034F7BCD7AF5
:100A7200CC79CC783F12022FC004C005C006C00753
:100A8200E5452401FDE43544FCE412034AD003D0D9
:100A920002D001D0001200351203838E448F45220A
:100AA200D3E55194FFE550941E400675501E7551D2
:100AB20000855182855083E024C0FDE434FFFCE4CC
:100AC20012034AAB4EAA4DA94CA84B120126E4FBD5
:100AD200FA798078421200351203838F42AC3BE4EC
:100AE20012034F7BCD7ACC79CC783F12022FC0040F
:100AF200C005C006C007E5512401FDE43550FCE401
:100B020012034AD003D002D001D0001200351203E2
:100B1200838E508F5122D3E55394FFE552941F40A8
:100B22000675521F755300855382855283E024C097
:100B3200FDE434FFFCE412034AAB4EAA4DA94CA8D3
:100B42004B120126E4FBFA79807842120035120337
:100B5200838F42AC3BE412034F7BCD7ACC79CC78C5
:100B62003F12022FC004C005C006C007E55324018E
:100B7200FDE43552FCE412034AD003D002D001D086
:0C0B8200001200351203838E528F5322A4
:10135B0085272FE52FD395584003852F58E52FC3AD
:10136B0095575003852F57D3E5379400E5369408EE
:10137B004039E5589557FDE49400FCE412034AE428
:10138B00FBFA79A078401201267BCD7ACC798C7848
:10139B003F12022FE4FBFAF9784312022F8F498E8A
:0C13AB00488D478C46755780755880228D
:100FC30085272FE52FD394804066E54FD394805037
:100FD3005F853621853722E55B455A604DC3E55B66
:100FE3009522FDE55A9521FC12034A12001EC00406
:100FF300C005C006C007AC2DAD2EEC12034AD003CA
:10100300D002D001D0001200351203838E2D8F2E13
:10101300AF41AE40AD3FAC3EE4FBFA7980783F127E
:1010230000358F418E408D3F8C3E85215A85225B52
:10103300D3E5379400E5369408404AAC2DAD2EEC49
:1010430012034AAB41AA40A93FA83E12022FA804AB
:10105300A905AA06AB07E4FFFE7DFA7C4412022F22
:1010630012108C1203838E388F39E4F52DF52EF58B
:101073005AF55BF521F522F541F540F53FF53E754F
:091083004F81752F81852F4F224A
:10140800EF1FAA0670011E4A60107C037DE8ED1DDF
:0A141800AA0470011C4A60E880F489
:0114220022A7
:1004F70012146BE543146025147003020680147010
:10050700030206862403600302076A75310112138A
:10051700ED0D7F161213F10D7F160205D185272ADF
:10052700E531600302076AE55664017031C3E533BC
:1005370094D0E53294075022E4FD7F151213F1D3CE
:10054700E53B94E7748094834003753BE7E53BD331
:1005570094005003E4F53B020653E40205E0E55638
:100567006402706FE54AB401151213ED0D7F051291
:1005770013F10D7F011213F10D7F17020767E54A8B
:10058700B402151213ED0D7F181213F10D7F191216
:1005970013F10D7F01020767E54AB403151213ED46
:1005A7000D7F051213F10D7F1A1213F10D7F14023F
:1005B7000767E54A6404600302076AFD7F161213A2
:1005C700F10D7F051213F10D7F181213F10D7F1630
:1005D700020767E5566403704CFFFE7D207C41AB44
:1005E7004EAA4DA94CA84B1201261203838F2CE467
:1005F700FD7F141213F1E52C75F0648475F00A84FD
:10060700AFF00D1213F1E52C75F00A8475F00A842A
:10061700E5F0240AFF0D1213F1E52C75F00A84AFFB
:10062700F00D020767E5566404600302076AFD7F61
:10063700151213F1D3E53B94E77480948340037557
:100647003BE7E53BD394005003E4F53BE53B75F00E
:10065700648475F00A84AFF07D011213F1E53B75F0
:10066700F00A8475F00A84AFF00D1213F1E53B75BB
:10067700F00A84AFF00D02076785272A02076A850B
:10068700272AE531600302076AC3E53394D0E532D0
:1006970094075078752901E5286401600302076A09
:1006A700F528FD7F151213F1D3E53994E7E5389462
:1006B7000340067538037539E7D3E5399400E53803
:1006C70094005005E4F538F539AE38AF397C007D34
:1006D700641204637C007D0A120463AF057D011276
:1006E70013F1AE38AF397C007D0A1204637C007DBC
:1006F7000A120463AF057D021213F1AE38AF397CDD
:10070700007D0A120463AF057D038054752801E557
:10071700296401704EF529FFFE7D207C41AB49AA73
:1007270048A947A8461201261203838F2BE4FD7FB1
:10073700141213F1E52B75F0648475F00A84AFF099
:100747000D1213F1E52B75F00A8475F00A84E5F0B4
:10075700240AFF0D1213F1E52B75F00A84AFF00D93
:100767001213F1E55E20E0030204FA12077B535EE1
:04077700FE0204FA80
:10002E000203EFE86480F8E933E83360110460F00E
:10003E00ED33EC337009E8FCE9FDEAFEEBFF220438
:10004E0060DED3EB9FEA9EE99DE8C2E78CF0C2F733
:10005E0095F0400CE8CCF8E9CDF9EACEFAEBCFFBFF
:10006E001203BA85D0F05804700320D5B3E804709B
:10007E00075002B2D50203F992D5EC0460F7E4CC36
:10008E00C0E0C398F8603B94186008400DD0E0FBC8
:10009E000203D1E4FBFAC9FC8028E830E406E4C987
:1000AE00FBE4CAFCE830E305E4C9CACBFCE854071C
:1000BE006010F8C3E913F9EA13FAEB13FBEC13FC27
:1000CE00D8F130F52FC3E49CFCEF9BFFEE9AFEEDCA
:1000DE0099FDD0E0FBEF4E4D4C701222DB03020374
:1000EE00F6EC2CFCEF33FFEE33FEED33FDED30E797
:1000FE00EB0203D1EF2BFFEE3AFEED39FDD0E0FB24
:10010E0050130BBB00030203F9ED13FDEE13FEEFCC
:08011E0013FFEC13FC0203D1F6
:10012600EC4D6011E8497017ED33EC3304600DE4D3
:10013600FCFFFEFD22E933E8330470F80203EF12F8
:1001460003BA58046009E4CC2481500628500902F9
:1001560003F92840030203F6C0E0EB4A7044B98075
:1001660006D0E0FB0203E5EF4E701CBD8008EBFFF6
:10017600EAFEE9FD80EBE98DF0A4FEE5F002020F50
:10018600E9CDF9EAFEEBFFEF89F0A4FCE5F0CE89B4
:10019600F0A42EFFE435F0CD89F0A42DFEE435F071
:1001A6008067EF4E7005BD80D780C3EF8BF0A4AC9F
:1001B600F0EE8BF0A42CFCE435F0F8EF8AF0A42CDA
:1001C600E5F038FCE433CB8DF0A42CFCE5F03BF8ED
:1001D600EE8AF0A42CFCE5F038F8E433CF89F0A4DD
:1001E6002CFCE5F038CF3400CE89F0A42FFFE5F0E3
:1001F6003EFEE433C98DF0A42EFEE5F039CD8AF03B
:10020600A42FFFE5F03EFEE43DFD33D0E0FB5007B2
:100216000BBB000F0203F9EC2CFCEF33FFEE33FEB1
:06022600ED33FD0203D1DF
:10022C000203F9EC5D046005E8590470030203EF66
:10023C001203BA580460F6EC4860F2EC7004FDFE50
:10024C00FF22C860DB2481C85009C39860025006A5
:10025C000203F69850CAF582E9294B4A7005AB8225
:10026C000203E575F0007C1A7880C3EF9BEE9AEDE3
:10027C0099400DC3EF9BFFEE9AFEED99FDE842F01D
:10028C00DC23ACF0D0E0FFD0E0FED0E0FDAB822070
:10029C00E7101BEB60BAEC2CFCEF33FFEE33FEEDFA
:1002AC0033FD0203D1E803F830E705C0F075F00028
:1002BC00EF2FFFEE33FEED33FD40B830E7C280AADE
:1002CC0074F8CC6480CCC86480C8F58204604FC3D9
:1002DC00EB9FF5F0EA9E42F0E99D42F0E89C45F078
:1002EC00603C501DE5825FFFE582D313CB5BCBF402
:1002FC002B5582FB50280ABA002409B9002008802B
:10030C001DE5825BFBE582D313CF5FCFF4C3132FC4
:10031C005582FF50090EBE00050DBD00010CC3EB4C
:10032C009FF5F0EA9E42F0E99D42F0E89C45F060B2
:09033C0007CC4820E701B3EC22D4
:1003450075F020800E75F010800575F0087D007E33
:10035500007F003392D530D5031204B8EC3340103A
:10036500EF33FFEE33FEED33FDEC33FCD5F0ED223C
:0E037500E5F0247EA2D513CC92E7CDCEFF2278
:10038300EDD2E7CD33EC3392D524814006E4FFFE72
:10039300FDFC22FCE4CFCECDCC24E0501174FF80D1
:1003A300EDC3CC13CCCD13CDCE13CECF13CF04706E
:0703B300F030D5DE0204B8B2
:0D001E00ED33EC3360065004EC6480FC22EE
:100D53003A70FA83BCAAE9E43E81E0F8BF9DE9E674
:100D63003F80000039283C1ABB9969663DA335E3EF
:100D7300BF255DE73FC90FDB418DDBCCC44936EEB0
:100D830045C9913FC5B0F83D3F800000C317F53416
:100D9300452FFA73C60AFDDD120E4204A2E192004A
:100DA3001420E015900D5374041204048026120ECF
:100DB3004230E102B20020E0EB8C148D158E168FC9
:100DC30017900D677404120404A814A915AA16AB8E
:100DD30017120126ED4C6007300004EC6480FC22FE
:100DE300120E42C0E08C148D158E168F17900D8B4A
:100DF3007403120404A814A915AA16AB171201262A
:100E0300ECC514FCEDC515FDEEC516FEEFC517FFC9
:100E1300900D7B7403120404D082A814A915AA169A
:100E2300AB17E58230E00712022FB20080A6EFCBAA
:100E3300FFEECAFEEDC9FDECC8FC12022F8095ED52
:100E430033EC547FCC33920024605007D0E0D0E0E1
:100E53000203EF7B837AF97922783E120126EDF9BA
:100E630033ECF83324815011EFFBEEFA12038312B3
:100E73000345ECB2E7FC120035ED33EC33602F246D
:100E830003F8C313FCED92E7FDE82481E4501FEC63
:100E9300F8EDF9EEFAEFFB120383EF04C2E0FCF581
:100EA3008212034FECB2E7FC120035E58203FAED40
:0E0EB30033EC3360071413FCED92E7FDEA22E6
:10108C008F178E168D158C1474FFFFFEFDFCAB179D
:10109C00AA16A915A814C31204C6602C7F807E96CC
:1010AC007D187C4BAB17AA16A915A8141202CC609C
:1010BC000250157F807E967D187CCBAB17AA16A9A3
:1010CC0015A8141202CC5009AF17AE16AD15AC14FE
:1010DC0022AF17AE16AD15AC141203838F1B8E1AEC
:1010EC008D198C18EC120345C8ECC8C9EDC9CAEEB1
:1010FC00CACBEFCBAF17AE16AD15AC14120031E462
:10110C00FBFAF9F81202CC601A401874FF251BF593
:10111C001BE51A34FFF51AE51934FFF519E51834F7
:10112C00FFF518AF1BAE1AAD19AC18EC1203452223
:1003BA00E9D2E7C933E833F892D5EDD2E7CD33EC89
:0703CA0033FC5002B2D52202
:1003D100EC30E7100FBF000C0EBE00080DBD00048D
:1003E1000BEB6014A2D5EB13FCED92E7FD2274FF39
:1003F100FCFDFEFF22E480F8A2D574FF13FC7D8092
:03040100E480EFA5
:10040400C0E0EFFBEEFAEDF9ECF8120126D0E0F5CE
:10041400F0EFFBEEFAEDF9ECF81204D7A3A3A3A3D3
:10042400E8C0E0E9C0E0EAC0E0EBC0E0C0F01201DF
:10043400261204E7A3A3A3A3120035D0F0D0E0FB57
:0D044400D0E0FAD0E0F9D0E0F8D5F0D422F5
:030000000211E00A
:0C11E000787FE4F6D8FD75815F021227CD
:10045100EF8DF0A4A8F0CF8CF0A428CE8DF0A42EBF
:02046100FE2279
:10046300BC000BBE0029EF8DF084FFADF022E4CC7D
:10047300F875F008EF2FFFEE33FEEC33FCEE9DEC46
:10048300984005FCEE9DFE0FD5F0E9E4CEFD22ED8C
:10049300F8F5F0EE8420D21CFEADF075F008EF2FD6
:1004A300FFED33FD4007985006D5F0F222C398FDC7
:0504B3000FD5F0EA2264
:0E04B800C3E49FFFE49EFEE49DFDE49CFC2255
:1004C600EB9FF5F0EA9E42F0E99D42F0E89C45F08C
:0104D6002203
:1004D700E493FC740193FD740293FE740393FF226B
:1004E700E493F8740193F9740293FA740393FB226B
:1011EC000204F7E493A3F8E493A34003F68001F21E
:1011FC0008DFF48029E493A3F85407240CC8C33304
:10120C00C4540F4420C8834004F456800146F6DFD2
:10121C00E4800B010204081020408090126CE47EE4
:10122C00019360BCA3FF543F30E509541FFEE493C7
:10123C00A360010ECF54C025E060A840B8E493A38E
:10124C00FAE493A3F8E493A3C8C582C8CAC583CAB9
:10125C00F0A3C8C582C8CAC583CADFE9DEE780BE71
:0112F40000F9
:00000001FF
