:030000000208648F
:0C086400787FE4F6D8FD7581410208ABF6
:100B1D00041A111111110408EFEFEFEF011100018B
:100B2D001900011E00011200020C0099041340204F
:0D0B3D000000010E00020F00000217000072
:100A5500E4F534F50FF510120C04120C13120C22E8
:100A650012000EE4FD7F1612065F7D017F16120649
:100A75005F7D027F1612065F7D037F1612065FE516
:100A85001930E00E851E345319FEE534B403031204
:100A95000C31E53424FE600F146014240270E075F7
:100AA5001201120B7380D8751202120B8F80D0754C
:070AB500120312059080C836
:0F0C04005389F0438902758A06758C06D28C22BB
:0F0C130053890F438920758B06758D06D28E226B
:0F0C2200D2AFD2A9D2ABD2ADD2B9C2BBC2BD2222
:03000B00020ABC2A
:100ABC00C0E0C0F0C083C082C0D075D000C000C000
:100ACC0001C002C003C004C005C006C007C2AF0508
:100ADC0018E51870020517120003E518640A45178B
:100AEC007012F517F5181207CB120BC60510E5108E
:100AFC007002050FD2AFD007D006D005D004D003BA
:100B0C00D002D001D000D0D0D082D083D0F0D0E0B1
:010B1C0032A6
:03001B00020BF3E2
:100BF300C0E0C2AF0510E5107002050FD2AFD0E020
:010C030032BE
:1007CB00E5111460111460121460131460142404E6
:1007DB0070127F01800E7F02800A7F0480067F08E3
:1007EB0080027F107E80E4FDEF5E6003D38001C347
:1007FB009290C291D291EEC313FE0DBD08EAE511A2
:10080B00C39404500C74082511F8E6FF85111E8063
:10081B001BE51224FE600B14600C2402700C7FF796
:10082B00800A7FFB80067FFD80027FFF7E80E4FDD8
:10083B00EF5E6003D38001C39290C291D291EEC35D
:10084B0013FE0DBD08EAC292D292C2920511E511B8
:08085B00D394044003E4F511FD
:010863002272
:02065F00A905EB
:10066100EFB417004003020712900671F8282873AF
:100671000206B60206BA0206BE0206C20206C60299
:1006810006CA0206CE0206D20206D60206DA020621
:10069100DE0206E20206E60206EA0206EE0206F2C1
:1006A1000206F60206FA0206FE0207020207060227
:1006B100070A02070E7E11805A7E7D80567E2380B6
:1006C100527E29804E7E4D804A7E8980467E818081
:1006D100427E3D803E7E01803A7E0980367E1080DA
:1006E100327E7C802E7E22802A7E2880267E4C804F
:1006F100227E88801E7E80801A7E3C8016E4FE80E9
:10070100127E08800E7E51800A7E8780067EEF80F1
:09071100027E11740829F8A60605
:01071A0022BC
:100BC600E51920E01330B504051E800930B4097418
:090BD60005251EF51E431901223C
:090B4A00013F00043B0000000023
:100B7300E4FD7F1612065F7D017F0112065F7D0291
:0C0B83007F1612065F7D037F1602065FDE
:100B8F00E4FD7F1612065F7D017F0212065F7D0274
:0C0B9F007F1612065F7D037F1602065FC2
:10059000E53F14605B147003020629240260030225
:1005A000065EE4FD7F1612065F7D017F0312065F83
:1005B0007D027F1612065F7D037F1612065FC3E57C
:1005C00010953EFFE50F953DFEE4953CFDE4953B1F
:1005D000FCE47BD07A07F9F8D31204484003020602
:1005E0005E753F01E485103E850F3DF53CF53B22ED
:1005F000C3E510953EFFE50F953DFEE4953CFDE417
:10060000953BFCE47B887A13F9F8D3120448504EEA
:10061000753F02E485103E850F3DF53CF53BAF1676
:10062000AE15AD14AC130209E7C3E510953EFFE526
:100630000F953DFEE4953CFDE4953BFCE47B887A18
:1006400013F9F8D31204485015753F01E485103EA4
:0F065000850F3DF53CF53BAF0DAE0C1209732243
:0E0C3100E4F53F85103E850F3DF53CF53B2276
:100973008E358F36E4FD7F1512065FD3E53694E797
:10098300E5356480948340067535037536E7D3E512
:10099300369400E535648094805005E4F535F536EA
:1009A300AE35AF367C007D641204047C007D0A12F0
:1009B3000404AF057D0112065FAE35AF367C007DC2
:1009C3000A1204047C007D0A120404AF057D02129E
:1009D300065FAE35AF367C007D0A120404AF057D99
:0409E3000302065FA6
:0809E7008F388E378D368C35F8
:1009EF00E4FFFE7D207C41AB38AA37A936A835122B
:1009FF00012612030A8E398F3AE4FD7F1412065F27
:100A0F00AE39AF3A7C007D641204047C007D0A127B
:100A1F000404AF057D0112065FAE39AF3A7C007D4D
:100A2F000A1204047C007D0A120404ED240AFF7DDF
:100A3F000212065FAE39AF3A7C007D0A120404AF92
:060A4F00057D0302065FB5
:040B5300024000005C
:0D000E00759D0875BC837F027E00020BAB60
:0400030075BC8B221B
:03002B00020BDFE6
:100BDF00C0E0C0D075BC83E5BDC3132440F500D081
:040BEF00D0D0E03250
:100BAB00EF1FAA0670011E4A60107C037DE8ED1D45
:0A0BBB00AA0470011C4A60E880F4EF
:010BC500220D
:100B5700012200012180012B8002230000021F00D7
:0B0B670000022900000425000000002F
:1008F000E5126403706F85000EE50ED39521400369
:10090000850E21E50EC3952B5003850E2BD3E500F4
:100910009400E500648094844058AC2BE41202D625
:10092000E4FBFA79A07840120126C004C005C00695
:10093000C007AC21E41202D6E4FBFA79A078401299
:100940000126D003D002D001D000120031E4FBFA1E
:10095000F9784312022F8F168E158D148C13752B78
:100960008075218022E4F516F515F514F513F50CC4
:03097000F50D2260
:1004AE00E5126403600302058285000EE50ED39407
:1004BE00804066E522D39480505F85001F85002022
:1004CE00E52A4529604DC3E52A9520FDE529951FAE
:1004DE00FC1202D112001EC004C005C006C007AC3B
:1004EE0023AD24EC1202D1D003D002D001D00012E1
:1004FE00003512030A8E238F24AF28AE27AD26AC0B
:10050E0025E4FBFA7980783F1200358F288E278DEF
:10051E00268C25851F2985202AD3E5009400E50029
:10052E0064809484404AAC23AD24EC1202D1AB28F3
:10053E00AA27A926A82512022FA804A905AA06AB48
:10054E0007E4FFFE7DFA7C4412022F12071B1203F2
:10055E000A8E0C8F0DE4F523F524F529F52AF51FE7
:10056E00F520F528F527F526F525752281750E81DE
:10057E00850E2222E4F516F515F514F513F50CF596
:02058E000D223C
:10002E00020376E86480F8E933E83360110460F087
:10003E00ED33EC337009E8FCE9FDEAFEEBFF220438
:10004E0060DED3EB9FEA9EE99DE8C2E78CF0C2F733
:10005E0095F0400CE8CCF8E9CDF9EACEFAEBCFFBFF
:10006E0012034185D0F05804700320D5B3E8047014
:10007E00075002B2D502038092D5EC0460F7E4CCAF
:10008E00C0E0C398F8603B94186008400DD0E0FBC8
:10009E00020358E4FBFAC9FC8028E830E406E4C900
:1000AE00FBE4CAFCE830E305E4C9CACBFCE854071C
:1000BE006010F8C3E913F9EA13FAEB13FBEC13FC27
:1000CE00D8F130F52FC3E49CFCEF9BFFEE9AFEEDCA
:1000DE0099FDD0E0FBEF4E4D4C701222DB03020374
:1000EE007DEC2CFCEF33FFEE33FEED33FDED30E710
:1000FE00EB020358EF2BFFEE3AFEED39FDD0E0FB9D
:10010E0050130BBB0003020380ED13FDEE13FEEF45
:08011E0013FFEC13FC0203586F
:10012600EC4D6011E8497017ED33EC3304600DE4D3
:10013600FCFFFEFD22E933E8330470F80203761271
:10014600034158046009E4CC248150062850090272
:10015600038028400302037DC0E0EB4A7044B98067
:1001660006D0E0FB02036CEF4E701CBD8008EBFF6F
:10017600EAFEE9FD80EBE98DF0A4FEE5F002020F50
:10018600E9CDF9EAFEEBFFEF89F0A4FCE5F0CE89B4
:10019600F0A42EFFE435F0CD89F0A42DFEE435F071
:1001A6008067EF4E7005BD80D780C3EF8BF0A4AC9F
:1001B600F0EE8BF0A42CFCE435F0F8EF8AF0A42CDA
:1001C600E5F038FCE433CB8DF0A42CFCE5F03BF8ED
:1001D600EE8AF0A42CFCE5F038F8E433CF89F0A4DD
:1001E6002CFCE5F038CF3400CE89F0A42FFFE5F0E3
:1001F6003EFEE433C98DF0A42EFEE5F039CD8AF03B
:10020600A42FFFE5F03EFEE43DFD33D0E0FB5007B2
:100216000BBB000F020380EC2CFCEF33FFEE33FE2A
:06022600ED33FD02035858
:10022C00020380EC5D046005E85904700302037658
:10023C00120341580460F6EC4860F2EC7004FDFEC9
:10024C00FF22C860DB2481C85009C39860025006A5
:10025C0002037D9850CAF582E9294B4A7005AB829E
:10026C0002036C75F0007C1A7880C3EF9BEE9AED5C
:10027C0099400DC3EF9BFFEE9AFEED99FDE842F01D
:10028C00DC23ACF0D0E0FFD0E0FED0E0FDAB822070
:10029C00E7101BEB60BAEC2CFCEF33FFEE33FEEDFA
:1002AC0033FD020358E803F830E705C0F075F000A1
:1002BC00EF2FFFEE33FEED33FD40B830E7C280AADE
:1002CC0075F020800E75F010800575F0087D007EAD
:1002DC00007F003392D530D50312043AEC33401032
:1002EC00EF33FFEE33FEED33FDEC33FCD5F0ED22B6
:0E02FC00E5F0247EA2D513CC92E7CDCEFF22F2
:10030A00EDD2E7CD33EC3392D524814006E4FFFEEB
:10031A00FDFC22FCE4CFCECDCC24E0501174FF804A
:10032A00EDC3CC13CCCD13CDCE13CECF13CF0470E7
:07033A00F030D5DE02043AA9
:0D001E00ED33EC3360065004EC6480FC22EE
:10071B008F2F8E2E8D2D8C2C74FFFFFEFDFCAB2F9F
:10072B00AA2EA92DA82CC3120448602C7F807E967C
:10073B007D187C4BAB2FAA2EA92DA82C12038B60F6
:10074B000250157F807E967D187CCBAB2FAA2EA9ED
:10075B002DA82C12038B5009AF2FAE2EAD2DAC2C28
:10076B0022AF2FAE2EAD2DAC2C12030A8F338E324F
:10077B008D318C30EC1202CCC8ECC8C9EDC9CAEE75
:10078B00CACBEFCBAF2FAE2EAD2DAC2C120031E47C
:10079B00FBFAF9F812038B601A401874FF2533F536
:1007AB0033E53234FFF532E53134FFF531E53034E2
:1007BB00FFF530AF33AE32AD31AC30EC1202CC22A0
:10034100E9D2E7C933E833F892D5EDD2E7CD33EC02
:0703510033FC5002B2D5227B
:10035800EC30E7100FBF000C0EBE00080DBD000406
:100368000BEB6014A2D5EB13FCED92E7FD2274FFB2
:10037800FCFDFEFF22E480F8A2D574FF13FC7D800B
:03038800E480EF1F
:10038B0074F8CC6480CCC86480C8F58204604FC319
:10039B00EB9FF5F0EA9E42F0E99D42F0E89C45F0B8
:1003AB00603C501DE5825FFFE582D313CB5BCBF442
:1003BB002B5582FB50280ABA002409B9002008806B
:1003CB001DE5825BFBE582D313CF5FCFF4C3132F05
:1003DB005582FF50090EBE00050DBD00010CC3EB8D
:1003EB009FF5F0EA9E42F0E99D42F0E89C45F060F3
:0903FB0007CC4820E701B3EC2215
:10087000020A55E493A3F8E493A34003F68001F23F
:1008800008DFF48029E493A3F85407240CC8C33389
:10089000C4540F4420C8834004F456800146F6DF58
:1008A000E4800B0102040810204080900B1DE47EC0
:1008B000019360BCA3FF543F30E509541FFEE4934D
:1008C000A360010ECF54C025E060A840B8E493A314
:1008D000FAE493A3F8E493A3C8C582C8CAC583CA3F
:1008E000F0A3C8C582C8CAC583CADFE9DEE780BEF7
:010B72000082
:10040400C2D5EC30E709B2D5E4C39DFDE49CFCEE13
:1004140030E715B2D5E4C39FFFE49EFE120459C32E
:10042400E49DFDE49CFC800312045930D507C3E429
:060434009FFFE49EFE2282
:0E043A00C3E49FFFE49EFEE49DFDE49CFC22D3
:10044800EB9FF5F0EA9E42F0E99D42F0E89C45F00A
:010458002281
:10045900BC000BBE0029EF8DF084FFADF022E4CC87
:10046900F875F008EF2FFFEE33FEEC33FCEE9DEC50
:10047900984005FCEE9DFE0FD5F0E9E4CEFD22ED96
:10048900F8F5F0EE8420D21CFEADF075F008EF2FE0
:10049900FFED33FD4007985006D5F0F222C398FDD1
:0504A9000FD5F0EA226E
:00000001FF
