:10141400117D23294D89813D0109107C22284C88A6
:0B142400803C00085187EF15C3E70D66
:10126000015D000423EFEFEFEF01390001420001BF
:10127000550001300101290001280002350000025B
:10128000330000023B1C0002431D00024F1E0002FF
:10129000511F0002310000025B0000012700012AFB
:1012A00000014901014100013A0A044A3F8000005F
:1012B00001580002370000044500000000012B0027
:1012C000012C00012F00014E0001578001568002C1
:1012D0002D00000221000002590000043D00000022
:0512E0000002530000B4
:0F146E005389F0438902758A06758C06D28C2249
:0F147D0053890F438920758B06758D06D28E22F9
:0F148C00D2AFD2A9D2ABD2ADD2B9C2BBC2BD22B0
:0D000E00759D0875BC837F027E000213F90A
:10145C0043970112146E12147D12148C12000E029A
:02146C000B8EE5
:03000B000212E6F8
:1012E600C0E0C0F0C083C082C0D075D000C000C0CE
:1012F60001C002C003C004C005C006C007C2AF05D6
:101306005CE55C7002055B1213A8E55C6403455B53
:101316007003120992E55C6405455B700C1211308E
:1013260012142F755B00755C00D2AFD007D006D0C3
:1013360005D004D003D002D001D000D0D0D082D0C6
:0613460083D0F0D0E0327C
:03001B00020EC111
:100EC100C0E0C0F0C083C082C0D075D000C000C0F7
:100ED10001C002C003C004C005C006C007C2AF05FF
:100EE10032E53270020531E542B4030612134C12A9
:100EF1000FB7E542B40132853533853634D3E53653
:100F010094F0E535941B4006753500753600E527EC
:100F110024C025E0853682853583F0755300852709
:100F2100540536E53670020535E542B40224D3E5B1
:100F31003494F0E533941B40067533007534008515
:100F41003482853383E0C313F5580534E5347002E8
:100F51000533E542B40332853533853634D3E5367E
:100F61009400E53594084006753500753600E5278F
:100F710024C025E0853682853583F07553008527A9
:100F8100540536E53670020535E532B4A00BE5317E
:100F9100B40F06753100753200D2AFD007D006D03C
:100FA10005D004D003D002D001D000D0D0D082D05F
:060FB10083D0F0D0E03215
:03002B0002144874
:10144800C0E0C0D075BC83E5BDC3132440F527D0E8
:04145800D0D0E032DE
:1013A80075BC8BE54224FE601414601E240270256F
:1013B800904000E52AF0902000E541F0229040009E
:1013C800E52AF0902000E558F022904000E52AF048
:0613D800902000E4F02269
:10142F00E55D20E01330B504055E800930B4097422
:09143F0005255EF55E435D012206
:10077B00E55E14B40800400302099190079475F0EC
:10078B0003A4C58325F0C583730207AC0207AC0233
:10079B0007AC0208020208170208770208D0020908
:1007AB0035855E42753001E4F510F511E4F512F56F
:1007BB00131213DE7D01AF421213E27D027F16127C
:1007CB0013E27D037F161213E20513E51370020586
:1007DB0012C3940FE512940040D70511E511700276
:1007EB000510C394E8E510940340C1E542B401033E
:1007FB00755501E4F53022E542B4010DE555B4041D
:10080B000675550102098A055502098AE5426401FC
:10081B007057E555B40205754901804DE555B40394
:10082B0032E4FFFE7D807C40AB4DAA4CA94BA84A1D
:10083B001202CC6002501CAF4DAE4CAD4BAC4AE437
:10084B00FBFA7980783F1200358F4D8E4C8D4B8C97
:10085B004A8016E555B40411D3E53A94DE748094BE
:10086B00835006740A253AF53A02098AE542640177
:10087B007050E555B402057549028046E555B40341
:10088B002FE4FFFEFD7C40AB4DAA4CA94BA84A12AE
:10089B0002CC401CAF4DAE4CAD4BAC4AE4FBFA79ED
:1008AB008078BF1200358F4D8E4C8D4B8C4A801249
:1008BB00E555B4040DE53AC39414400674F6253A95
:1008CB00F53A02098AE5426401705DE555B402050B
:1008DB007549038053E555B403347FCD7ECC7D9CA5
:1008EB007C40AB4DAA4CA94BA84A1202CC600250DB
:1008FB001DAF4DAE4CAD4BAC4A7BCD7ACC79CC78A1
:10090B003D1200358F4D8E4C8D4B8C4A801AE55520
:10091B00B40415AC3AE412034F7B337AF37979784C
:10092B00441202CC4002053A8055E5426401704FF7
:10093B00E555B402057549048045E555B403327F8E
:10094B00CD7ECC7D4C7C3EAB4DAA4CA94BA84A121C
:10095B0002CC401DAF4DAE4CAD4BAC4A7BCD7ACCEF
:10096B0079CC78BD1200358F4D8E4C8D4B8C4A80D7
:10097B000EE555B40409E53AC394024002153A7FDB
:06098B00647E001213F966
:010991002243
:0413DE00E4FD7F1695
:1013E200EFC3941B5008EF90141493FF80027F11F7
:0713F20074232DF8A6072269
:10113000E53914600E14600F146010240370107FE2
:1011400001800E7F02800A7F0480067F0880027F74
:10115000107E80E4FDEF5E6004D2908002C290C2F7
:1011600091D291C291EEC313FE53067F0DBD08E5E7
:10117000E539D39403500974232539F8E6FF801B21
:10118000E54224FE600B14600C2402700C7FF78093
:101190000A7FFB80067FFD80027FFEE539D3940342
:1011A000500385395E0539E539D394044003E4F5ED
:1011B000397E80E4FDEF5E6004D2908002C290C26E
:1011C00091D291C291EEC313FE0DBD08E8C292D236
:0311D00092C29236
:0111D30022F9
:100B8E00E4F510F511F512F513F512F51375101CA9
:100B9E00F511D3E51194FFE510941C505CAC12AD29
:100BAE0013E412034A7BC37AF57948784012012682
:100BBE00E4FBFAF9784312022F120DB1E4FBFA7935
:100BCE0080783F120035E4FBFA79607841120126F5
:100BDE00121080E4FBFAF978421200351203838575
:100BEE001182851083EFF00511E5117002051005D5
:100BFE0013E513709D05128099E4F512F513751027
:100C0E001DF511D3E511947FE510941D5045AC12DE
:100C1E00AD13E412034AE4FBFAF9784312022FE40F
:100C2E00FBFA79F07841120126121080E4FBFA7972
:100C3E00447842120035120383851182851083EFAA
:100C4E00F00511E511700205100513E51370B405DA
:100C5E001280B0E4F512F51375101D751180D3E5F1
:100C6E001194FFE510941D504DAC12AD13E4120318
:100C7E004AE4FBFAF9784312022FE4FBFA79F07892
:100C8E0041120126121080A804A905AA06AB07E49A
:100C9E00FFFE7D9E7C4212003112038385118285F8
:100CAE001083EFF00511E511700205100513E51321
:100CBE0070AC051280A875101E7511008511828505
:100CCE001083744FF00511E51170020510B480EC1D
:100CDE00E510B41EE775101E751180851182851002
:100CEE00837431F00511E51170020510B400ECE5C6
:100CFE0010B41FE7E4F512F51375101FF511D3E5C7
:100D0E001194FFE510941F503BAE12AF137C007D83
:100D1E001E120451EEFDE412034A121080E4FBFA97
:100D2E00794478421200351203838511828510832F
:100D3E00EFF00511E511700205100513E51370BEF5
:040D4E00051280BA50
:010D5200227E
:10099200E54264016003020B8DE54924FE70030207
:1009A2000A2C147003020AA2147003020B18240307
:1009B2006003020B8DD3E53C94FFE53B941C40069B
:1009C200753B1C753C00853C82853B83E024E0FD41
:1009D200E434FFFCE412034AAB4DAA4CA94BA84AEB
:1009E200120126E4FBFAF978421200351203838FD2
:1009F20041AC3AE412034F7BCD7ACC79CC783F12EA
:100A0200022FC004C005C006C007E53C2401FDE476
:100A1200353BFCE412034AD003D002D001D00012CD
:100A220000351203838E3B8F3C22D3E54494FFE5CD
:100A320043941D400675431D7544008544828543D9
:100A420083E024C0FDE434FFFCE412034AAB4DAA68
:100A52004CA94BA84A120126E4FBFA79807842128B
:100A620000351203838F41AC3AE412034F7BCD7AF7
:100A7200CC79CC783F12022FC004C005C006C00753
:100A8200E5442401FDE43543FCE412034AD003D0DB
:100A920002D001D0001200351203838E438F44220C
:100AA200D3E55094FFE54F941E4006754F1E7550D6
:100AB20000855082854F83E024C0FDE434FFFCE4CE
:100AC20012034AAB4DAA4CA94BA84A120126E4FBD9
:100AD200FA798078421200351203838F41AC3AE4EE
:100AE20012034F7BCD7ACC79CC783F12022FC0040F
:100AF200C005C006C007E5502401FDE4354FFCE403
:100B020012034AD003D002D001D0001200351203E2
:100B1200838E4F8F5022D3E55294FFE551941F40AC
:100B22000675511F755200855282855183E024C09B
:100B3200FDE434FFFCE412034AAB4DAA4CA94BA8D6
:100B42004A120126E4FBFA79807842120035120338
:100B5200838F41AC3AE412034F7BCD7ACC79CC78C7
:100B62003F12022FC004C005C006C007E55224018F
:100B7200FDE43551FCE412034AD003D002D001D087
:0C0B8200001200351203838E518F5222A6
:10134C0085272FE52FD395574003852F57E52FC3BE
:10135C0095565003852F56D3E5369400E535940801
:10136C004039E5579556FDE49400FCE412034AE439
:10137C00FBFA79A078401201267BCD7ACC798C7857
:10138C003F12022FE4FBFAF9784312022F8F488E9A
:0C139C00478D468C4575568075578022A1
:100FB70085272FE52FD394804066E54ED394805044
:100FC7005F853521853622E55A4559604DC3E55A77
:100FD7009522FDE5599521FC12034A12001EC00413
:100FE700C005C006C007AC2DAD2EEC12034AD003D6
:100FF700D002D001D0001200351203838E2D8F2E20
:10100700AF40AE3FAD3EAC3DE4FBFA7980783F128E
:1010170000358F408E3F8D3E8C3D85215985225A64
:10102700D3E5369400E5359408404AAC2DAD2EEC57
:1010370012034AAB40AA3FA93EA83D12022FA804BB
:10104700A905AA06AB07E4FFFE7DFA7C4412022F2E
:101057001210801203838E378F38E4F52DF52EF5A5
:1010670059F55AF521F522F540F53FF53EF53D7561
:091077004E81752F81852F4E2258
:1013F900EF1FAA0670011E4A60107C037DE8ED1DEF
:0A140900AA0470011C4A60E880F498
:0114130022B6
:1004F70012145CE542146025147003020680147020
:10050700030206862403600302076A75300112138B
:10051700DE0D7F161213E20D7F160205D185272AFD
:10052700E530600302076AE55564017031C3E532BF
:1005370094D0E53194075022E4FD7F151213E2D3DE
:10054700E53A94E7748094834003753AE7E53AD334
:1005570094005003E4F53A020653E40205E0E5553A
:100567006402706FE549B401151213DE0D7F0512A1
:1005770013E20D7F011213E20D7F17020767E549AA
:10058700B402151213DE0D7F181213E20D7F191234
:1005970013E20D7F01020767E549B403151213DE65
:1005A7000D7F051213E20D7F1A1213E20D7F14025D
:1005B7000767E5496404600302076AFD7F161213A3
:1005C700E20D7F051213E20D7F181213E20D7F165D
:1005D700020767E5556403704CFFFE7D207C41AB45
:1005E7004DAA4CA94BA84A1201261203838F2CE46B
:1005F700FD7F141213E2E52C75F0648475F00A840C
:10060700AFF00D1213E2E52C75F00A8475F00A8439
:10061700E5F0240AFF0D1213E2E52C75F00A84AF0A
:10062700F00D020767E5556404600302076AFD7F62
:10063700151213E2D3E53A94E77480948340037567
:100647003AE7E53AD394005003E4F53AE53A75F012
:10065700648475F00A84AFF07D011213E2E53A7500
:10066700F00A8475F00A84AFF00D1213E2E53A75CB
:10067700F00A84AFF00D02076785272A02076A850B
:10068700272AE530600302076AC3E53294D0E531D3
:1006970094075078752901E5286401600302076A09
:1006A700F528FD7F151213E2D3E53894E7E5379473
:1006B7000340067537037538E7D3E5389400E53707
:1006C70094005005E4F537F538AE37AF387C007D38
:1006D700641204637C007D0A120463AF057D011276
:1006E70013E2AE37AF387C007D0A1204637C007DCD
:1006F7000A120463AF057D021213E2AE37AF387CEE
:10070700007D0A120463AF057D038054752801E557
:10071700296401704EF529FFFE7D207C41AB48AA74
:1007270047A946A8451201261203838F2BE4FD7FB4
:10073700141213E2E52B75F0648475F00A84AFF0A8
:100747000D1213E2E52B75F00A8475F00A84E5F0C3
:10075700240AFF0D1213E2E52B75F00A84AFF00DA2
:100767001213E2E55D20E0030204FA12077B535DF2
:04077700FE0204FA80
:10002E000203EFE86480F8E933E83360110460F00E
:10003E00ED33EC337009E8FCE9FDEAFEEBFF220438
:10004E0060DED3EB9FEA9EE99DE8C2E78CF0C2F733
:10005E0095F0400CE8CCF8E9CDF9EACEFAEBCFFBFF
:10006E001203BA85D0F05804700320D5B3E804709B
:10007E00075002B2D50203F992D5EC0460F7E4CC36
:10008E00C0E0C398F8603B94186008400DD0E0FBC8
:10009E000203D1E4FBFAC9FC8028E830E406E4C987
:1000AE00FBE4CAFCE830E305E4C9CACBFCE854071C
:1000BE006010F8C3E913F9EA13FAEB13FBEC13FC27
:1000CE00D8F130F52FC3E49CFCEF9BFFEE9AFEEDCA
:1000DE0099FDD0E0FBEF4E4D4C701222DB03020374
:1000EE00F6EC2CFCEF33FFEE33FEED33FDED30E797
:1000FE00EB0203D1EF2BFFEE3AFEED39FDD0E0FB24
:10010E0050130BBB00030203F9ED13FDEE13FEEFCC
:08011E0013FFEC13FC0203D1F6
:10012600EC4D6011E8497017ED33EC3304600DE4D3
:10013600FCFFFEFD22E933E8330470F80203EF12F8
:1001460003BA58046009E4CC2481500628500902F9
:1001560003F92840030203F6C0E0EB4A7044B98075
:1001660006D0E0FB0203E5EF4E701CBD8008EBFFF6
:10017600EAFEE9FD80EBE98DF0A4FEE5F002020F50
:10018600E9CDF9EAFEEBFFEF89F0A4FCE5F0CE89B4
:10019600F0A42EFFE435F0CD89F0A42DFEE435F071
:1001A6008067EF4E7005BD80D780C3EF8BF0A4AC9F
:1001B600F0EE8BF0A42CFCE435F0F8EF8AF0A42CDA
:1001C600E5F038FCE433CB8DF0A42CFCE5F03BF8ED
:1001D600EE8AF0A42CFCE5F038F8E433CF89F0A4DD
:1001E6002CFCE5F038CF3400CE89F0A42FFFE5F0E3
:1001F6003EFEE433C98DF0A42EFEE5F039CD8AF03B
:10020600A42FFFE5F03EFEE43DFD33D0E0FB5007B2
:100216000BBB000F0203F9EC2CFCEF33FFEE33FEB1
:06022600ED33FD0203D1DF
:10022C000203F9EC5D046005E8590470030203EF66
:10023C001203BA580460F6EC4860F2EC7004FDFE50
:10024C00FF22C860DB2481C85009C39860025006A5
:10025C000203F69850CAF582E9294B4A7005AB8225
:10026C000203E575F0007C1A7880C3EF9BEE9AEDE3
:10027C0099400DC3EF9BFFEE9AFEED99FDE842F01D
:10028C00DC23ACF0D0E0FFD0E0FED0E0FDAB822070
:10029C00E7101BEB60BAEC2CFCEF33FFEE33FEEDFA
:1002AC0033FD0203D1E803F830E705C0F075F00028
:1002BC00EF2FFFEE33FEED33FD40B830E7C280AADE
:1002CC0074F8CC6480CCC86480C8F58204604FC3D9
:1002DC00EB9FF5F0EA9E42F0E99D42F0E89C45F078
:1002EC00603C501DE5825FFFE582D313CB5BCBF402
:1002FC002B5582FB50280ABA002409B9002008802B
:10030C001DE5825BFBE582D313CF5FCFF4C3132FC4
:10031C005582FF50090EBE00050DBD00010CC3EB4C
:10032C009FF5F0EA9E42F0E99D42F0E89C45F060B2
:09033C0007CC4820E701B3EC22D4
:1003450075F020800E75F010800575F0087D007E33
:10035500007F003392D530D5031204B8EC3340103A
:10036500EF33FFEE33FEED33FDEC33FCD5F0ED223C
:0E037500E5F0247EA2D513CC92E7CDCEFF2278
:10038300EDD2E7CD33EC3392D524814006E4FFFE72
:10039300FDFC22FCE4CFCECDCC24E0501174FF80D1
:1003A300EDC3CC13CCCD13CDCE13CECF13CF04706E
:0703B300F030D5DE0204B8B2
:0D001E00ED33EC3360065004EC6480FC22EE
:100D53003A70FA83BCAAE9E43E81E0F8BF9DE9E674
:100D63003F80000039283C1ABB9969663DA335E3EF
:100D7300BF255DE73FC90FDB418DDBCCC44936EEB0
:100D830045C9913FC5B0F83D3F800000C317F53416
:100D9300452FFA73C60AFDDD120E4204A2E192004A
:100DA3001420E015900D5374041204048026120ECF
:100DB3004230E102B20020E0EB8C148D158E168FC9
:100DC30017900D677404120404A814A915AA16AB8E
:100DD30017120126ED4C6007300004EC6480FC22FE
:100DE300120E42C0E08C148D158E168F17900D8B4A
:100DF3007403120404A814A915AA16AB171201262A
:100E0300ECC514FCEDC515FDEEC516FEEFC517FFC9
:100E1300900D7B7403120404D082A814A915AA169A
:100E2300AB17E58230E00712022FB20080A6EFCBAA
:100E3300FFEECAFEEDC9FDECC8FC12022F8095ED52
:100E430033EC547FCC33920024605007D0E0D0E0E1
:100E53000203EF7B837AF97922783E120126EDF9BA
:100E630033ECF83324815011EFFBEEFA12038312B3
:100E73000345ECB2E7FC120035ED33EC33602F246D
:100E830003F8C313FCED92E7FDE82481E4501FEC63
:100E9300F8EDF9EEFAEFFB120383EF04C2E0FCF581
:100EA3008212034FECB2E7FC120035E58203FAED40
:0E0EB30033EC3360071413FCED92E7FDEA22E6
:101080008F178E168D158C1474FFFFFEFDFCAB17A9
:10109000AA16A915A814C31204C6602C7F807E96D8
:1010A0007D187C4BAB17AA16A915A8141202CC60A8
:1010B0000250157F807E967D187CCBAB17AA16A9AF
:1010C00015A8141202CC5009AF17AE16AD15AC140A
:1010D00022AF17AE16AD15AC141203838F1B8E1AF8
:1010E0008D198C18EC120345C8ECC8C9EDC9CAEEBD
:1010F000CACBEFCBAF17AE16AD15AC14120031E46E
:10110000FBFAF9F81202CC601A401874FF251BF59F
:101110001BE51A34FFF51AE51934FFF519E5183403
:10112000FFF518AF1BAE1AAD19AC18EC120345222F
:1003BA00E9D2E7C933E833F892D5EDD2E7CD33EC89
:0703CA0033FC5002B2D52202
:1003D100EC30E7100FBF000C0EBE00080DBD00048D
:1003E1000BEB6014A2D5EB13FCED92E7FD2274FF39
:1003F100FCFDFEFF22E480F8A2D574FF13FC7D8092
:03040100E480EFA5
:10040400C0E0EFFBEEFAEDF9ECF8120126D0E0F5CE
:10041400F0EFFBEEFAEDF9ECF81204D7A3A3A3A3D3
:10042400E8C0E0E9C0E0EAC0E0EBC0E0C0F01201DF
:10043400261204E7A3A3A3A3120035D0F0D0E0FB57
:0D044400D0E0FAD0E0F9D0E0F8D5F0D422F5
:030000000211D416
:0C11D400787FE4F6D8FD75815E02121BE6
:10045100EF8DF0A4A8F0CF8CF0A428CE8DF0A42EBF
:02046100FE2279
:10046300BC000BBE0029EF8DF084FFADF022E4CC7D
:10047300F875F008EF2FFFEE33FEEC33FCEE9DEC46
:10048300984005FCEE9DFE0FD5F0E9E4CEFD22ED8C
:10049300F8F5F0EE8420D21CFEADF075F008EF2FD6
:1004A300FFED33FD4007985006D5F0F222C398FDC7
:0504B3000FD5F0EA2264
:0E04B800C3E49FFFE49EFEE49DFDE49CFC2255
:1004C600EB9FF5F0EA9E42F0E99D42F0E89C45F08C
:0104D6002203
:1004D700E493FC740193FD740293FE740393FF226B
:1004E700E493F8740193F9740293FA740393FB226B
:1011E0000204F7E493A3F8E493A34003F68001F22A
:1011F00008DFF48029E493A3F85407240CC8C33310
:10120000C4540F4420C8834004F456800146F6DFDE
:10121000E4800B0102040810204080901260E47EFC
:10122000019360BCA3FF543F30E509541FFEE493D3
:10123000A360010ECF54C025E060A840B8E493A39A
:10124000FAE493A3F8E493A3C8C582C8CAC583CAC5
:10125000F0A3C8C582C8CAC583CADFE9DEE780BE7D
:0112E5000008
:00000001FF
