:10149100117D23294D89813D0109107C22284C8829
:0B14A100803C00085187EF15C3E70DE9
:1012B600012C00012B00015700025500000425EF08
:1012C600EFEFEF013A0002320000025A0000012956
:1012D60000012D00014B000236000002340000021E
:1012E6003C1C0002441D0002511E0002531F000157
:1012F6005D00014300014A01014200013B0A044C22
:101306003F80000002380000044600000000012A69
:1013160000012100013100015000012480015C80A0
:10132600022E00000222000002580000043E0000C7
:05133600000001300180
:0F14D9005389F0438902758A06758C06D28C22DE
:0F14E80053890F438920758B06758D06D28E228E
:0F14F700D2AFD2A9D2ABD2ADD2B9C2BBC2BD2245
:10118600E53A14600E14600F146010240370107F8B
:1011960001800E7F02800A7F0480067F0880027F1E
:1011A600107E80E4FDEF5E6004D2908002C290C2A1
:1011B60091D291C291EEC313FE53067F0DBD08E591
:1011C600E53AD3940350097425253AF8E6FF801BC7
:1011D600E54324FE600B14600C2402700C7FF7803C
:1011E6000A7FFB80067FFD80027FFEE53AD39403EB
:1011F6005003853A5E053AE53AD394044003E4F594
:101206003A7E80E4FDEF5E6004D2908002C290C216
:1012160091D291C291EEC313FE0DBD08E8C292D2DF
:0312260092C292DF
:0112290022A2
:03000B000213BF1E
:1013BF00C0E0C0F0C083C082C0D075D000C000C0F4
:1013CF0001C002C003C004C005C006C007C2AF05FC
:1013DF005BE55B7002055A121425E55B6403455A01
:1013EF00700312078AE55B6405455A700C1211866B
:1013FF001214AC755A00755B00D2AFD007D006D06F
:10140F0005D004D003D002D001D000D0D0D082D0EC
:06141F0083D0F0D0E032A2
:03001B00020F17BA
:100F1700C0E0C0F0C083C082C0D075D000C000C0A0
:100F270001C002C003C004C005C006C007C2AF05A8
:100F370033E53370020532E543B4030612133C125E
:100F4700100DE543B40132853634853735D3E5379F
:100F570094F0E536941B4006753600753700E52991
:100F670024C025E0853782853683F07555008529AD
:100F7700560537E53770020536E543B40224D3E555
:100F87003594F0E534941B400675340075350085BB
:100F97003582853483E0C313F54B0535E53570029B
:100FA7000534E543B40332853634853735D3E53721
:100FB7009400E53694084006753600753700E52934
:100FC70024C025E0853782853683F075550085294D
:100FD700560537E53770020536E533B4A00BE53221
:100FE700B40F06753200753300D2AFD007D006D0E4
:100FF70005D004D003D002D001D000D0D0D082D009
:0610070083D0F0D0E032BE
:10078A00E543640160030209D7E54A24FE700302C7
:10079A0008701470030208E8147003020960240345
:1007AA0060030209D7D3E53D94FFE53C941C504C05
:1007BA00E4FFFE7D807C3FAB4FAA4EA94DA84C12A8
:1007CA0002CC602D853D82853C83E024E0FDE43443
:1007DA00FFFCE412034AAB4FAA4EA94DA84C1201E2
:1007EA0026E4FBFAF978421200351203838F42801D
:1007FA003C853D82853C83E0F5428031753C1C7521
:10080A003D00853D82853C83E024E0FDE434FFFC25
:10081A00E412034AAB4FAA4EA94DA84C120126E492
:10082A00FBFAF978421200351203838F42AC3BE49B
:10083A0012034F7BCD7ACC79CC783F12022FC004B9
:10084A00C005C006C007E53D2401FDE4353CFCE4D3
:10085A0012034AD003D002D001D00012003512038D
:10086A00838E3C8F3D22D3E54594F3E544941D5095
:10087A0002800675441D754500854582854483E0DE
:10088A0024C0FDE434FFFCE412034AAB4FAA4EA98C
:10089A004DA84C120126E4FBFA7980784212003501
:1008AA001203838F42AC3BE412034F7BCD7ACC799F
:1008BA00CC783F12022FC004C005C006C007E54528
:1008CA002401FDE43544FCE412034AD003D002D0EB
:1008DA0001D0001200351203838E448F4522D3E5DE
:1008EA005294FFE551941E5002800675511E7552AE
:1008FA0000855282855183E024C0FDE434FFFCE484
:10090A0012034AAB4FAA4EA94DA84C120126E4FB8A
:10091A00FA798078421200351203838F42AC3BE4A5
:10092A0012034F7BCD7ACC79CC783F12022FC004C8
:10093A00C005C006C007E5522401FDE43551FCE4B8
:10094A0012034AD003D002D001D00012003512039C
:10095A00838E518F5222D3E55494FFE553941F504E
:10096A0002800675531F755400855482855383E0AF
:10097A0024C0FDE434FFFCE412034AAB4FAA4EA99B
:10098A004DA84C120126E4FBFA7980784212003510
:10099A001203838F42AC3BE412034F7BCD7ACC79AE
:1009AA00CC783F12022FC004C005C006C007E55428
:1009BA002401FDE43553FCE412034AD003D002D0EB
:0E09CA0001D0001200351203838E538F542289
:04145B00E4FD7F1617
:10145F00EFC3941B5008EF90149193FF80027F11FC
:07146F0074252DF8A60722E9
:1004F7004397011214D91214E81214F712000E12BE
:100507000BE4E54314602514700302068F1470038F
:100517000206952403600302077975300112145B04
:100527000D7F1612145F0D7F160205E085292DE554
:10053700306003020779E55764017031C3E53394EE
:10054700D0E53294075022E4FD7F1512145FD3E5FE
:100557003B94E7748094834003753BE7E53BD39472
:10056700005003E4F53B020662E40205EFE5576439
:1005770002706FE54AB4011512145B0D7F05121462
:100587005F0D7F0112145F0D7F17020776E54AB4EE
:10059700021512145B0D7F1812145F0D7F191214C8
:1005A7005F0D7F01020776E54AB4031512145B0D50
:1005B7007F0512145F0D7F1A12145F0D7F14020757
:1005C70076E54A64046003020779FD7F1612145F1B
:1005D7000D7F0512145F0D7F1812145F0D7F160231
:1005E7000776E5576403704CFFFE7D207C41AB4FD7
:1005F700AA4EA94DA84C1201261203838F21E4FDB0
:100607007F1412145FE52175F0648475F00A84AFD6
:10061700F00D12145FE52175F00A8475F00A84E580
:10062700F0240AFF0D12145FE52175F00A84AFF07C
:100637000D020776E55764046003020779FD7F150D
:1006470012145FD3E53B94E7748094834003753BB2
:10065700E7E53BD394005003E4F53BE53B75F064D5
:100667008475F00A84AFF07D0112145FE53B75F0E5
:100677000A8475F00A84AFF00D12145FE53B75F03C
:100687000A84AFF00D02077685292D02077985299F
:100697002DE5306003020779C3E53394D0E5329442
:1006A700075078752C01E52B64016003020779F583
:1006B7002BFD7F1512145FD3E53994E7E5389403D2
:1006C70040067538037539E7D3E5399400E5389462
:1006D700005005E4F538F539AE38AF397C007D6454
:1006E7001204637C007D0A120463AF057D011214B6
:1006F7005FAE38AF397C007D0A1204637C007D0A47
:10070700120463AF057D0212145FAE38AF397C0067
:100717007D0A120463AF057D038054752B01E52C18
:100727006401704EF52CFFFE7D207C41AB49AA4841
:10073700A947A8461201261203838F2AE4FD7F14D6
:1007470012145FE52A75F0648475F00A84AFF00D22
:1007570012145FE52A75F00A8475F00A84E5F0241F
:100767000AFF0D12145FE52A75F00A84AFF00D1227
:10077700145FE55D20E0030205091209D8535DFE09
:030787000205095F
:0D000E00759D0875BC837F027E000214768C
:1014250075BC8BE54324FE601414601E24027025F0
:10143500904000E52DF0902000E542F0229040001C
:10144500E52DF0902000E54BF022904000E52DF0D1
:06145500902000E4F022EB
:03002B000214C5F7
:1014C500C0E0C0D075BC83E5BDC3132440F529D069
:0414D500D0D0E03261
:10147600EF1FAA0670011E4A60107C037DE8ED1D71
:0A148600AA0470011C4A60E880F41B
:011490002239
:100BE400E4F510F511F512F513F512F51375101C53
:100BF400F511D3E51194FFE510941C505CAC12ADD3
:100C040013E412034A7BC37AF5794878401201262B
:100C1400E4FBFAF9784312022F120E07E4FBFA7987
:100C240080783F120035E4FBFA796078411201269E
:100C34001210D6E4FBFAF9784212003512038385C8
:100C44001182851083EFF00511E51170020510057E
:100C540013E513709D05128099E4F512F5137510D0
:100C64001DF511D3E511947FE510941D5045AC1288
:100C7400AD13E412034AE4FBFAF9784312022FE4B9
:100C8400FBFA79F078411201261210D6E4FBFA79C6
:100C9400447842120035120383851182851083EF54
:100CA400F00511E511700205100513E51370B40584
:100CB4001280B0E4F512F51375101D751180D3E59B
:100CC4001194FFE510941D504DAC12AD13E41203C2
:100CD4004AE4FBFAF9784312022FE4FBFA79F0783C
:100CE400411201261210D6A804A905AA06AB07E4EE
:100CF400FFFE7D9E7C4212003112038385118285A2
:100D04001083EFF00511E511700205100513E513CA
:100D140070AC051280A875101E75110085118285AE
:100D24001083744FF00511E51170020510B480ECC6
:100D3400E510B41EE775101E7511808511828510AB
:100D4400837431F00511E51170020510B400ECE56F
:100D540010B41FE7E4F512F51375101FF511D3E570
:100D64001194FFE510941F503BAE12AF137C007D2D
:100D74001E120451EEFDE412034A1210D6E4FBFAEB
:100D840079447842120035120383851182851083D9
:100D9400EFF00511E511700205100513E51370BE9F
:040DA400051280BAFA
:010DA8002228
:1014AC00E55D20E01330B504055E800930B40974A5
:0914BC0005255EF55E435D012289
:1009D800E55E14B408004003020BE39009F175F0DA
:1009E80003A4C58325F0C58373020A09020A090214
:1009F8000A09020A54020A69020AC9020B22020BF6
:100A080087855E43753001E4F510F511E4FBFA12B1
:100A1800145B0DAF4312145F0D7F1612145F0D7F28
:100A28001612145F0BBB00010AEB640F4A70E00555
:100A380011E51170020510C394E8E510940340CC49
:100A4800E543B40103755701E4F53022E543B401E9
:100A58000DE557B40406755701020BDC0557020B68
:100A6800DCE54364017057E557B40205754A018017
:100A78004DE557B40332E4FFFE7D807C40AB4FAABE
:100A88004EA94DA84C1202CC6002501CAF4FAE4E7E
:100A9800AD4DAC4CE4FBFA7980783F1200358F4FAE
:100AA8008E4E8D4D8C4C8016E557B40411D3E53B22
:100AB80094DE748094835006740A253BF53B020B40
:100AC800DCE54364017050E557B40205754A0280BD
:100AD80046E557B4032FE4FFFEFD7C40AB4FAA4E1A
:100AE800A94DA84C1202CC401CAF4FAE4EAD4DAC38
:100AF8004CE4FBFA798078BF1200358F4F8E4E8D0B
:100B08004D8C4C8012E557B4040DE53BC39414405A
:100B18000674F6253BF53B020BDCE5436401705D8A
:100B2800E557B40205754A038053E557B403347F8B
:100B3800CD7ECC7D9C7C40AB4FAA4EA94DA84C12D3
:100B480002CC6002501DAF4FAE4EAD4DAC4C7BCDCC
:100B58007ACC79CC783D1200358F4F8E4E8D4D8CE6
:100B68004C801AE557B40415AC3BE412034F7B33B1
:100B78007AF3797978441202CC4002053B8055E536
:100B8800436401704FE557B40205754A048045E592
:100B980057B403327FCD7ECC7D4C7C3EAB4FAA4E02
:100BA800A94DA84C1202CC401DAF4FAE4EAD4DAC76
:100BB8004C7BCD7ACC79CC78BD1200358F4F8E4ED8
:100BC8008D4D8C4C800EE557B40409E53BC3940267
:0B0BD8004002153B7F647E0012147683
:010BE30022EF
:10133C00852931E531D395244003853124E531C32A
:10134C00955C500385315CD3E5379400E536940801
:10135C004060AC5CE412034FE4FBFA79A0784012D5
:10136C0001267BCD7ACC798C783F12022FC004C039
:10137C0005C006C007AC24E412034FE4FBFA79A0C5
:10138C0078401201267BCD7ACC798C783F12022FD3
:10139C00D003D002D001D000120031E4FBFAF9786E
:1013AC004312022F8F498E488D478C46755C807591
:0313BC0024802268
:10100D00852931E531D394804066E550D3948050E5
:10101D005F853622853723E5594558604DC3E5591F
:10102D009523FDE5589522FC12034A12001EC004BB
:10103D00C005C006C007AC2EAD2FEC12034AD0037D
:10104D00D002D001D0001200351203838E2E8F2FC7
:10105D00AF41AE40AD3FAC3EE4FBFA7980783F1234
:10106D0000358F418E408D3F8C3E8522588523590A
:10107D00D3E5379400E5369408404AAC2EAD2FECFD
:10108D0012034AAB41AA40A93FA83E12022FA80461
:10109D00A905AA06AB07E4FFFE7DFA7C4412022FD8
:1010AD001210D61203838E388F39E4F52EF52FF5F5
:1010BD0058F559F522F523F541F540F53FF53E7507
:0910CD00508175318185315022FA
:10002E000203EFE86480F8E933E83360110460F00E
:10003E00ED33EC337009E8FCE9FDEAFEEBFF220438
:10004E0060DED3EB9FEA9EE99DE8C2E78CF0C2F733
:10005E0095F0400CE8CCF8E9CDF9EACEFAEBCFFBFF
:10006E001203BA85D0F05804700320D5B3E804709B
:10007E00075002B2D50203F992D5EC0460F7E4CC36
:10008E00C0E0C398F8603B94186008400DD0E0FBC8
:10009E000203D1E4FBFAC9FC8028E830E406E4C987
:1000AE00FBE4CAFCE830E305E4C9CACBFCE854071C
:1000BE006010F8C3E913F9EA13FAEB13FBEC13FC27
:1000CE00D8F130F52FC3E49CFCEF9BFFEE9AFEEDCA
:1000DE0099FDD0E0FBEF4E4D4C701222DB03020374
:1000EE00F6EC2CFCEF33FFEE33FEED33FDED30E797
:1000FE00EB0203D1EF2BFFEE3AFEED39FDD0E0FB24
:10010E0050130BBB00030203F9ED13FDEE13FEEFCC
:08011E0013FFEC13FC0203D1F6
:10012600EC4D6011E8497017ED33EC3304600DE4D3
:10013600FCFFFEFD22E933E8330470F80203EF12F8
:1001460003BA58046009E4CC2481500628500902F9
:1001560003F92840030203F6C0E0EB4A7044B98075
:1001660006D0E0FB0203E5EF4E701CBD8008EBFFF6
:10017600EAFEE9FD80EBE98DF0A4FEE5F002020F50
:10018600E9CDF9EAFEEBFFEF89F0A4FCE5F0CE89B4
:10019600F0A42EFFE435F0CD89F0A42DFEE435F071
:1001A6008067EF4E7005BD80D780C3EF8BF0A4AC9F
:1001B600F0EE8BF0A42CFCE435F0F8EF8AF0A42CDA
:1001C600E5F038FCE433CB8DF0A42CFCE5F03BF8ED
:1001D600EE8AF0A42CFCE5F038F8E433CF89F0A4DD
:1001E6002CFCE5F038CF3400CE89F0A42FFFE5F0E3
:1001F6003EFEE433C98DF0A42EFEE5F039CD8AF03B
:10020600A42FFFE5F03EFEE43DFD33D0E0FB5007B2
:100216000BBB000F0203F9EC2CFCEF33FFEE33FEB1
:06022600ED33FD0203D1DF
:10022C000203F9EC5D046005E8590470030203EF66
:10023C001203BA580460F6EC4860F2EC7004FDFE50
:10024C00FF22C860DB2481C85009C39860025006A5
:10025C000203F69850CAF582E9294B4A7005AB8225
:10026C000203E575F0007C1A7880C3EF9BEE9AEDE3
:10027C0099400DC3EF9BFFEE9AFEED99FDE842F01D
:10028C00DC23ACF0D0E0FFD0E0FED0E0FDAB822070
:10029C00E7101BEB60BAEC2CFCEF33FFEE33FEEDFA
:1002AC0033FD0203D1E803F830E705C0F075F00028
:1002BC00EF2FFFEE33FEED33FD40B830E7C280AADE
:1002CC0074F8CC6480CCC86480C8F58204604FC3D9
:1002DC00EB9FF5F0EA9E42F0E99D42F0E89C45F078
:1002EC00603C501DE5825FFFE582D313CB5BCBF402
:1002FC002B5582FB50280ABA002409B9002008802B
:10030C001DE5825BFBE582D313CF5FCFF4C3132FC4
:10031C005582FF50090EBE00050DBD00010CC3EB4C
:10032C009FF5F0EA9E42F0E99D42F0E89C45F060B2
:09033C0007CC4820E701B3EC22D4
:1003450075F020800E75F010800575F0087D007E33
:10035500007F003392D530D5031204B8EC3340103A
:10036500EF33FFEE33FEED33FDEC33FCD5F0ED223C
:0E037500E5F0247EA2D513CC92E7CDCEFF2278
:10038300EDD2E7CD33EC3392D524814006E4FFFE72
:10039300FDFC22FCE4CFCECDCC24E0501174FF80D1
:1003A300EDC3CC13CCCD13CDCE13CECF13CF04706E
:0703B300F030D5DE0204B8B2
:0D001E00ED33EC3360065004EC6480FC22EE
:100DA9003A70FA83BCAAE9E43E81E0F8BF9DE9E61E
:100DB9003F80000039283C1ABB9969663DA335E399
:100DC900BF255DE73FC90FDB418DDBCCC44936EE5A
:100DD90045C9913FC5B0F83D3F800000C317F534C0
:100DE900452FFA73C60AFDDD120E9804A2E192009E
:100DF9001420E015900DA974041204048026120E23
:100E09009830E102B20020E0EB8C148D158E168F1C
:100E190017900DBD7404120404A814A915AA16ABE1
:100E290017120126ED4C6007300004EC6480FC22A7
:100E3900120E98C0E08C148D158E168F17900DE147
:100E49007403120404A814A915AA16AB17120126D3
:100E5900ECC514FCEDC515FDEEC516FEEFC517FF73
:100E6900900DD17403120404D082A814A915AA16EE
:100E7900AB17E58230E00712022FB20080A6EFCB54
:100E8900FFEECAFEEDC9FDECC8FC12022F8095EDFC
:100E990033EC547FCC33920024605007D0E0D0E08B
:100EA9000203EF7B837AF97922783E120126EDF964
:100EB90033ECF83324815011EFFBEEFA120383125D
:100EC9000345ECB2E7FC120035ED33EC33602F2417
:100ED90003F8C313FCED92E7FDE82481E4501FEC0D
:100EE900F8EDF9EEFAEFFB120383EF04C2E0FCF52B
:100EF9008212034FECB2E7FC120035E58203FAEDEA
:0E0F090033EC3360071413FCED92E7FDEA228F
:1010D6008F178E168D158C1474FFFFFEFDFCAB1753
:1010E600AA16A915A814C31204C6602C7F807E9682
:1010F6007D187C4BAB17AA16A915A8141202CC6052
:101106000250157F807E967D187CCBAB17AA16A958
:1011160015A8141202CC5009AF17AE16AD15AC14B3
:1011260022AF17AE16AD15AC141203838F1B8E1AA1
:101136008D198C18EC120345C8ECC8C9EDC9CAEE66
:10114600CACBEFCBAF17AE16AD15AC14120031E417
:10115600FBFAF9F81202CC601A401874FF251BF549
:101166001BE51A34FFF51AE51934FFF519E51834AD
:10117600FFF518AF1BAE1AAD19AC18EC12034522D9
:1003BA00E9D2E7C933E833F892D5EDD2E7CD33EC89
:0703CA0033FC5002B2D52202
:1003D100EC30E7100FBF000C0EBE00080DBD00048D
:1003E1000BEB6014A2D5EB13FCED92E7FD2274FF39
:1003F100FCFDFEFF22E480F8A2D574FF13FC7D8092
:03040100E480EFA5
:10040400C0E0EFFBEEFAEDF9ECF8120126D0E0F5CE
:10041400F0EFFBEEFAEDF9ECF81204D7A3A3A3A3D3
:10042400E8C0E0E9C0E0EAC0E0EBC0E0C0F01201DF
:10043400261204E7A3A3A3A3120035D0F0D0E0FB57
:0D044400D0E0FAD0E0F9D0E0F8D5F0D422F5
:0300000002122ABF
:0C122A00787FE4F6D8FD75815E02127139
:10045100EF8DF0A4A8F0CF8CF0A428CE8DF0A42EBF
:02046100FE2279
:10046300BC000BBE0029EF8DF084FFADF022E4CC7D
:10047300F875F008EF2FFFEE33FEEC33FCEE9DEC46
:10048300984005FCEE9DFE0FD5F0E9E4CEFD22ED8C
:10049300F8F5F0EE8420D21CFEADF075F008EF2FD6
:1004A300FFED33FD4007985006D5F0F222C398FDC7
:0504B3000FD5F0EA2264
:0E04B800C3E49FFFE49EFEE49DFDE49CFC2255
:1004C600EB9FF5F0EA9E42F0E99D42F0E89C45F08C
:0104D6002203
:1004D700E493FC740193FD740293FE740393FF226B
:1004E700E493F8740193F9740293FA740393FB226B
:101236000204F7E493A3F8E493A34003F68001F2D3
:1012460008DFF48029E493A3F85407240CC8C333B9
:10125600C4540F4420C8834004F456800146F6DF88
:10126600E4800B01020408102040809012B6E47E50
:10127600019360BCA3FF543F30E509541FFEE4937D
:10128600A360010ECF54C025E060A840B8E493A344
:10129600FAE493A3F8E493A3C8C582C8CAC583CA6F
:1012A600F0A3C8C582C8CAC583CADFE9DEE780BE27
:01133B0000B1
:00000001FF
